:020000040000FA
:04000000803119280A
:1000060008007E1480310B1F09280A2817282100B2
:10001600111C0E280F2817282000111C132814283D
:1000260017289A312E2280317E10090080311B2834
:100036009F308400993085005D308600013087004E
:1000460004308731FA2780319B308400993085004F
:10005600DE3086000230870004308731FA2780318F
:1000660054308400003085000E30903101208031FC
:10007600203084000130850022309031012080310B
:10008600A0308400013085004F309031012080314E
:1000960020308400023085004D30903101208031BF
:1000A600A03084000230850032309031012080314A
:1000B6007E1020009D31382D43302500200603197F
:1000C600652866286C2822003503031D6B286C28DA
:1000D6003B2A2200B501B50A2600C401C501252A1E
:1000E600433025002006031D79287A2880283030E1
:1000F6002000D30053082500A00026004408A03E97
:100106008600023087007230010603198B288C287E
:10011600AD284408A03E8600023087006C300106F8
:10012600031996289728AD284408A03E8600023079
:100136008700743001060319A128A228AD284408B7
:10014600A03E86000230870023300106031DAC283E
:10015600AD28072A4408A03E860002308700723088
:100166000106031DB728B8280B2920302000B4004B
:100176000330B50090312D20803120003408C300B3
:100186003508C400890D893B8909C500C6000130C0
:100196009E316F268031200046082300EA002000A9
:1001A60045082300E900200044082300E800200059
:1001B60043082300E7002600BC01BD01F3282030D8
:1001C6002000D30026003C08203E8600033087002E
:1001D60020005308810001302600BC070030BD3DD9
:1001E60020302000AE000330AF009A318E228031DD
:1001F60020002F0826003D02031D052920002E0899
:1002060026003C02031C08290929E2282200B6011F
:1002160026004408A03E8600023087006C300106A6
:10022600031D162917296A2920302000B40003303F
:10023600B50090312D20803120003408C3003508E8
:10024600C400890D893B8909C500C60001309E316D
:100256006F268031200046082400E0002000450873
:100266002400DF00200044082400DE0020004308AC
:100276002400DD002600BE01BF01522920302000E7
:10028600D30026003E08203E86000330870020006B
:100296005308810001302600BE070030BF3D2030E4
:1002A6002000AE000330AF009A318E22803120004C
:1002B6002F0826003F02031D642920002E08260071
:1002C6003E02031C6729682941292200B60126003F
:1002D6004408A03E86000230870074300106031DE4
:1002E60075297629C92920302000B4000330B500CD
:1002F60090312D20803120003408C3003508C40019
:10030600890D893B8909C500C60001309E316F26DB
:100316008031200046082400DC0020004508240027
:10032600DB00200044082400DA00200043082400F3
:10033600D9002600C001C101B12920302000D30018
:1003460026004008203E8600033087002000530820
:10035600810001302600C0070030C13D203020005A
:10036600AE000330AF009A318E22803120002F0874
:1003760026004102031DC32920002E082600400244
:10038600031CC629C729A0292200B6012600440855
:10039600A03E86000230870023300106031DD429C3
:1003A600D529202A02302000D30053082200B500A8
:1003B6002600C201C301F02920302000D300260008
:1003C6004208203E86000330870020005308810043
:1003D60001302600C2070030C33D20302000AE00A9
:1003E6000330AF009A318E22803120002F0826007C
:1003F6004302031D022A20002E0826004202031C87
:10040600052A062ADF29202A4408A03E8600023053
:10041600870001082000D30022003608203E86000F
:100426000330870020005308810022003608013E71
:100436002000D30053082200B60001302600C4076E
:100446000030C53DA0302000AE000230AF009A312A
:100456008E22803120002F0826004502031D372AF0
:1004660020002E0826004402031C3A2A3B2A732841
:10047600023022003506031D412A422AEC2B2400B5
:1004860060082100A70024005F082100A6002400C0
:100496005E082100A50024005D082100A400443068
:1004A600A300E130A2000030A1000030A0008D3191
:1004B6007C25803121002308EB002208EA00210870
:1004C600E9002008E8009B31992380312100690862
:1004D6002200C100210068082200C0004008200058
:1004E600C300220041082000C400C501C601003037
:1004F6009E316F268031200046082100BD00200075
:1005060045082100BC00200044082100BB00200053
:1005160043082100BA004330C100B430C0000030A7
:10052600BF000030BE0092318822803121003D0894
:100536002300C40021003C082300C30021003B081F
:100546002300C20021003A082300C100440821000C
:10055600A700230043082100A6002300420821002B
:10056600A500230041082100A40024005C08210006
:10057600A30024005B082100A20024005A082100E1
:10058600A100240059082100A0008D317C2580316E
:10059600210023082600BB00210022082600BA00FD
:1005A600210021082600B900210020082600B800F5
:1005B6003B082100A70026003A082100A6002600D5
:1005C60039082100A500260038082100A40044307F
:1005D600A3007A30A2000030A1000030A0008D31C7
:1005E6007C25803121002308C1002208C000210893
:1005F600BF002008BE004030BD00C030BC00003047
:10060600BB000030BA0092318822803121003D08BB
:10061600EB003C08EA003B08E9003A08E8009B3199
:1006260099238031210069082300DE002100680833
:100636002300DD0040302100A3004930A2000F3026
:10064600A100D030A00023006A082100A7002300E3
:1006560069082100A600230068082100A5002300E0
:1006660067082100A4008D317C25803121002308F4
:100676002600BB00210022082600BA00210021081E
:100686002600B900210020082600B80023004408EF
:100696002100A300230043082100A20023004208F2
:1006A6002100A100230041082100A00026003B08EC
:1006B6002100A70026003A082100A60026003908D6
:1006C6002100A500260038082100A4008D317C25D4
:1006D6008031210023082600B700210022082600C9
:1006E600B600210021082600B500210020082600BA
:1006F600B40044302100BD00E130BC000030BB0036
:100706000030BA004230A300C830A2000030A10079
:100716000030A000260037082100A7002600360872
:100726002100A600260035082100A5002600340871
:100736002100A4008D317C25803121002308C100D1
:100746002208C0002108BF002008BE00923188227E
:10075600803121003D082300C00021003C08230011
:10076600BF0021003B082300BE0021003A082300F9
:10077600BD006A082100BD00230069082100BC00F5
:10078600230068082100BB00230067082100BA0087
:100796004230C100C830C0000030BF000030BE008B
:1007A60092318822803121003D082400D8002100A2
:1007B6003C082400D70021003B082400D600210075
:1007C6003A082400D50003302000D3005308220045
:1007D600B50008004130250020060319F32BF42B41
:1007E600FA2B22003803031DF92BFA2BB32D220016
:1007F600B801B80A2600C401C5019D2D4130250067
:100806002006031D072C082C0E2C30302000D300A8
:1008160053082500A00026004408A03E86000230AA
:100826008700763001060319192C1A2C3B2C440834
:10083600A03E860002308700723001060319242C80
:10084600252C3B2C4408A03E8600023087006130F0
:10085600010603192F2C302C3B2C4408A03E8600A1
:100866000230870023300106031D3A2C3B2C7F2DD6
:100876004408A03E86000230870076300106031D3C
:10088600452C462C992C20302000B4000330B500AE
:1008960090312D20833120003408C3003508C40070
:1008A600890D893B8909C500C60001309E316F2636
:1008B6008331200046082200A300200045082200BC
:1008C600A200200044082200A100200043082200C4
:1008D600A0002600BC01BD01812C20302000D300E1
:1008E60026003C08203E860003308700200053087F
:1008F600810001302600BC070030BD3D20302000BD
:10090600AE000330AF009A318E22833120002F08CB
:1009160026003D02031D932C20002E0826003C02D3
:10092600031C962C972C702C2200B7012600440835
:10093600A03E86000230870072300106031DA42CFB
:10094600A52CF82C20302000B4000330B5009031DF
:100956002D20833120003408C3003508C400890DDA
:10096600893B8909C500C60001309E316F26833157
:10097600200046082300EE00200045082300ED0075
:10098600200044082300EC00200043082300EB006D
:100996002600BE01BF01E02C20302000D300260037
:1009A6003E08203E86000330870020005308810061
:1009B60001302600BE070030BF3D20302000AE00CB
:1009C6000330AF009A318E22833120002F08260093
:1009D6003F02031DF22C20002E0826003E02031CB7
:1009E600F52CF62CCF2C2200B70126004408A03E99
:1009F60086000230870061300106031D032D042D99
:100A0600412D20302000B4000330B50090312D2058
:100A16008331200035082300E0002000340823003D
:100A2600DF002600C001C101292D20302000D3009F
:100A360026004008203E8600033087002000530829
:100A4600810001302600C0070030C13D2030200063
:100A5600AE000330AF009A318E22833120002F087A
:100A660026004102031D3B2D20002E0826004002D1
:100A7600031C3E2D3F2D182D2200B70126004408E9
:100A8600A03E86000230870023300106031D4C2D50
:100A96004D2D982D02302000D30053082200B800B7
:100AA6002600C201C301682D20302000D300260095
:100AB6004208203E8600033087002000530881004C
:100AC60001302600C2070030C33D20302000AE00B2
:100AD6000330AF009A318E22833120002F08260082
:100AE6004302031D7A2D20002E0826004202031C15
:100AF6007D2D7E2D572D982D4408A03E8600023070
:100B0600870001082000D30022003708203E860017
:100B16000330870020005308810022003708013E79
:100B26002000D30053082200B70001302600C40776
:100B36000030C53DA0302000AE000230AF009A3133
:100B46008E22833120002F0826004502031DAF2D7B
:100B560020002E0826004402031CB22DB32D012CC2
:100B6600023022003806031DB92DBA2D1E2F403043
:100B76002100A3004930A2000F30A100D030A00010
:100B860023006E082100A70023006D082100A6009F
:100B960023006C082100A50023006B082100A40097
:100BA6008D317C258331210023082600B7002100E2
:100BB60022082600B600210021082600B5002100E3
:100BC60020082600B40023005F082000C30023008D
:100BD60060082000C400C501C60100309E316F26A2
:100BE6008331200046082100A3002000450821008B
:100BF600A200200044082100A10020004308210093
:100C0600A000260037082100A7002600360821008C
:100C1600A600260035082100A5002600340821007C
:100C2600A4008D317C258331210023082600BB00DA
:100C3600210022082600BA00210021082600B9005A
:100C4600210020082600B80041302100A300903082
:100C5600A2000030A1000030A000220023082100DD
:100C6600A700220022082100A60022002108210058
:100C7600A500220020082100A4008D317C258331A7
:100C860021002308BD002208BC002108BB00200863
:100C9600BA004230A300C830A2000030A1000030E4
:100CA600A00026003B082100A70026003A082100E4
:100CB600A600260039082100A500260038082100D4
:100CC600A4008D317C25833121002308C100220830
:100CD600C0002108BF002008BE009231882283315F
:100CE60021003D082300C80021003C082300C7005E
:100CF60021003B082300C60021003A082300C50056
:100D06006E082100BD0023006D082100BC002300F1
:100D16006C082100BB0023006B082100BA002200EA
:100D260023082100C100220022082100C000220061
:100D360021082100BF00220020082100BE009231B8
:100D46008822833121003D082400E40021003C086C
:100D56002400E30021003B082400E20021003A08B9
:100D66002400E10020005808C3005908C400C5014A
:100D7600C60100309E316F268331200046082100CF
:100D8600A300200045082100A200200044082100FD
:100D9600A100200043082100A000230048082100EC
:100DA600A700230047082100A600230046082100CB
:100DB600A500230045082100A4009B314A23833166
:100DC6000318E62EE72E022F230048082100EB0029
:100DD600230047082100EA00230046082100E90015
:100DE600230045082100E8009B3199238331210027
:100DF60069082000D900210068082000D8002200D8
:100E0600B201B30123082400D400220022082400E2
:100E1600D300220021082400D2002200200824004A
:100E2600D1006408D0006308CF006208CE006108D4
:100E3600CD002200B8010800033022003506031D4C
:100E4600252F262FD32F20005A082100EC00ED0174
:100E56006D0822004102031D342F21006C08220078
:100E66004002031C372F382FCD2F20005E08031DAC
:100E76003D2F3E2FD32F01302100EC006C082000BF
:100E8600DA0731309A310B2287312100EE01EF016A
:100E96005A2F06302100EC003030890B502FEC0B16
:100EA600502F000001302100EE070030EF3D2300F7
:100EB6005E0821006F02031D642F23005D082100D8
:100EC6006E02031C672F682F4C2F20005808C300A2
:100ED6005908C400C501C60100309E316F2687310E
:100EE600200046082100A300200045082100A2009A
:100EF600200044082100A100200043082100A00092
:100F0600230040082100A70023003F082100A60077
:100F160023003E082100A50023003D082100A4006F
:100F26009B314A2387310318992F9A2FB52F230017
:100F360040082100EB0023003F082100EA002300BF
:100F46003E082100E90023003D082100E8009B310E
:100F560099238731210069082000D90021006808FB
:100F66002000D8002000DE01DE0A2200B201B30113
:100F760042302400D400C830D3000030D200003004
:100F8600D1005808D0005708CF005608CE005508A3
:100F9600CD00D32F64309A310B2287312200B50160
:100FA60008000830290097009030950024309600FC
:100FB600A03093000130940000302000AE000030D5
:100FC600AF009931D221873100302000AE000030C9
:100FD600AF009931DB21873100302000AE000030B0
:100FE600AF009931C92187312200BB010800FE00FC
:0A0FF60012001E00FE0BFB2F00345A
:101002007A302100990098012200960108002200FE
:1010120090018F018C0127008C0122008D01270095
:101022008D0122008E01FF302100900026008C01EC
:10103200FF3021008C003D3026008D00F030210071
:101042008D00BB308E00FF308F00073023009000F0
:10105200183028008D00FF308C002F3023008C00C8
:1010620024008D0129008D012100951722009D0188
:1010720008004D3025002006031940284128472842
:1010820020005D03031D4628472834292000DD0186
:10109200DD0A2100B801B9011E294D3025002006C4
:1010A200031D542855285B2830302000D1005108F8
:1010B2002500A00021003808A03E860002308700EB
:1010C2007630010603196628672872283808A03E80
:1010D20086000230870023300106031D7128722822
:1010E20002293808A03E86000230870076300106C9
:1010F200031D7C287D28C928A0302000B4000030C0
:10110200B50090312D20883120003408C300350805
:10111200C400890D893B8909C500C60001309E3192
:101122006F26883120004608D7004508D6004408BB
:10113200D5004308D4002100B401B501B028203005
:101142002000D10021003408A03E86008701200043
:101152005108810001302100B4070030B53DA030B4
:101162002000AE000030AF009A318E22883120007C
:101172002F0821003502031DC22820002E0821005D
:101182003402031CC528C628A0282200B001B101E0
:1011920021003808A03E8600023087002330010675
:1011A200031DD428D52819292000DD012100B6010C
:1011B200B701EB2820302000D10021003608A03EE4
:1011C2008600870120005108810001302100B60706
:1011D2000030B73DA0302000AE000030AF009A31A1
:1011E2008E22883120002F0821003702031DFD289E
:1011F20020002E0821003602031C00290129DB28C9
:1012020019293808A03E8600023087000108200014
:10121200D10022003008A03E86008701200051083C
:10122200810022003008013EB0000030313DB100A3
:1012320001302100B8070030B93DA0302000AE00D7
:101242000230AF009A318E22883120002F0821000F
:101252003902031D302920002E0821003802031C08
:10126200332934294E280800023020005C06031D71
:101272003B293C296C2AE11F3F2940294F29E009DB
:10128200E109E00A0319E10AC0302300CC00403032
:10129200CB000030CA000030C9005829403023007A
:1012A200CC004030CB000030CA000030C9004330CF
:1012B2002100A300DA30A2005730A1002B30A00099
:1012C20020006008C3006108C400890D893B8909B8
:1012D200C500C60001309E316F26893120004608C4
:1012E2002100A700200045082100A6002000440894
:1012F2002100A500200043082100A4008D317C2597
:101302008931210023082200DA002100220822006C
:10131200D900210021082200D80021002008220043
:10132200D70045302100BD006A30BC009030BB00C0
:101332000030BA004230A300C830A2000030A10041
:101342000030A00022005A082100A70022005908FC
:101352002100A600220058082100A50022005708FB
:101362002100A4008D317C25893121002308C10090
:101372002208C0002108BF002008BE009231882246
:10138200893121003D082200A70021003C082200EB
:10139200A60021003B082200A50021003A082200F5
:1013A200A400B201B30120005808C3005908C400C8
:1013B200C501C60100309E316F26893120004608E2
:1013C2002100A300200045082100A20020004408BB
:1013D2002100A100200043082100A00022002708CC
:1013E2002100A700220026082100A60022002508CD
:1013F2002100A500220024082100A4009B314A23D9
:1014020089310318052A062A352A220027082100D5
:10141200DB00220026082100DA0022002508210034
:10142200D900220024082100D800C330D700073099
:10143200D6000030D5000030D4008B3144238931EE
:1014420021005708EB005608EA005508E900540845
:10145200E8009B3199238931210069082000D900D5
:10146200210068082000D80023004C082200CA008E
:1014720023004B082200C90023004A082200C800AA
:10148200230049082200C7000030CE000030CD0002
:101492000030CC000030CB00963108268931200084
:1014A200590822003302031D5A2A2000580822003C
:1014B2003202031C5D2A5E2A502A03302000D30028
:1014C2005308DC0000302200A7000030A6000030E4
:1014D200A5000030A400033020005C06031D722A20
:1014E200732A432B44302100A3007A30A20000303B
:1014F200A1000030A000230050082100BD002300FD
:101502004F082100BC0023004E082100BB0023002D
:101512004D082100BA00230061082000C300230007
:1015220062082000C400C501C60100309E316F264A
:101532008931200046082100C10020004508210011
:10154200C000200044082100BF0020004308210001
:10155200BE0092318822893121003D08A7003C0853
:10156200A6003B08A5003A08A4008D317C258931EC
:10157200210023082200A700210022082200A60041
:10158200210021082200A500210020082200A40039
:1015920020005808C3005908C400C501C601003024
:1015A2009E316F268931200046082100A3002000C9
:1015B20045082100A200200044082100A1002000CB
:1015C20043082100A000220027082100A7002200D2
:1015D20026082100A600220025082100A5002200DD
:1015E20024082100A4009B314A2389310318FA2AD6
:1015F200FB2A162B220027082100EB0022002608D6
:101602002100EA00220025082100E9002200240826
:101612002100E8009B3199238931210069082000CB
:10162200D900210068082000D8002200B201B301CD
:1016320000302300CC000030CB000030CA00003064
:10164200C90050082400D40023004F082400D3000E
:1016520023004E082400D20023004D082400D100AC
:1016620023004C082400D00023004B082400CF00A4
:1016720023004A082400CE00230049082400CD009C
:101682002000DC010800210057088039DC005C08DA
:10169200E4005735DC005C08E600D61F512B522BC4
:1016A200532B661466080319572B582B682B660AAE
:1016B200031D5C2B5D2B652B0030D7000030D6005C
:1016C2000030D5000030D400D617D701702B00307F
:1016D200D7000030D6000030D5000030D4005B08BF
:1016E2008039DC005C08E5006508640603197A2B82
:1016F2007B2B7C2B64175B35DC005C08E500DA1F72
:10170200832B842B852B651465080319892B8A2B5F
:101712009A2B650A031D8E2B8F2B972B0030DB0033
:101722000030DA000030D9000030D800DA17DB01CF
:10173200A22B0030DB000030DA000030D90000308C
:10174200D800660865020318A72BA82BEC2B641F90
:10175200AB2BAC2BB02B8030DC005C08E4066608B7
:10176200DC005C08E7006508DC005C08E60067084E
:10177200DC005C08E5005408DC005C08E70058085F
:10178200DC005C08D4006708DC005C08D80055085F
:10179200DC005C08E7005908DC005C08D50067083B
:1017A200DC005C08D9005608DC005C08E7005A0837
:1017B200DC005C08D6006708DC005C08DA00570829
:1017C200DC005C08E7005B08DC005C08D700670807
:1017D200DC005C08DB00E7016508DC00DD015D0878
:1017E200DF0066085C02DE00031CDF035F08803A4C
:1017F200E00080306002031D002C1A305E02031CE0
:10180200032C042C3C2C2100570856045504540484
:10181200031D0C2C0E2C01300F2C0030DC005C0858
:10182200E7000030D7000030D6000030D50000308D
:10183200D4006508DC005C08E600432C671C222CFF
:10184200232C292C67360138DC005C08E7002B2C9E
:101852000310E70C541C2E2C2F2C302CE7170130D0
:10186200DC00D737D60CD50CD40CDC0B322C013073
:10187200DC005C08E607210065086602031C422CB6
:10188200432C1F2C641B462C472C7F2C6608031DFF
:101892004B2C4C2C552C0030D7000030D600003099
:1018A200D5000030D4007B2D5808D4075908D53D07
:1018B2005A08D63D5B08D73D571C602C612C0B2D76
:1018C200671C642C652C6B2C67360138DC005C08C5
:1018D200E7006D2C0310E70C541C702C712C722C39
:1018E200E7170130DC00D737D60CD50CD40CDC0B53
:1018F200742C0130DC005C08E6070B2D5708803A97
:10190200DC005B08803A5C02031D912C5A085602E7
:10191200031D912C59085502031D912C580854029D
:101922000318942C952CCD2CFF30DC00FF30DD0009
:10193200FF30DE00FF30DF0054085802E000550897
:10194200593BE10056085A3BE20057085B3BE30073
:101952006008DC076108DD3D6208DE3D6308DF3DAB
:101962005F08D7005E08D6005D08D5005C08D40089
:101972008030DC005C08E406E709E70A6708031D1B
:10198200C32CC42CD52C0130D4070030D53D0030F7
:10199200D63D0030D73DD52C5808D4025908D53B46
:1019A2005A08D63B5B08D73B5708560455045404E3
:1019B200031DDC2CDD2C072D6708031DE12CE22C16
:1019C200072D0030D7000030D6000030D50000309F
:1019D200D4007B2D0130D435D50DD60DD70D890B12
:1019E200EC2CE71FF52CF62CF72C5414671CFA2C60
:1019F200FB2CFE2C0314E70D002D0310E70D6608E7
:101A02000319042D052D072D0130E602D61F0A2DDC
:101A12000B2DEB2CE501E71F0F2D102D1E2D670856
:101A22007F390319152D162D192DE501E50A1E2DF5
:101A3200541C1C2D1D2D1E2D162D65080319222D3B
:101A4200232D502D0130D4070030D53D0030D63D36
:101A52000030D73D571C2E2D2F2D502D5408DC0061
:101A62005508DD005608DE005708DF000130E000AF
:101A7200DF37DE0CDD0CDC0CE00B392D5F08D70004
:101A82005E08D6005D08D5005C08D400660A03191A
:101A92004B2D4C2D502D0130DC005C08E607660A08
:101AA2000319542D552D5A2D6608031D592D5A2DF3
:101AB200682D0030D7000030D6000030D50000304D
:101AC200D4006608031D662D672D682DE401661C8F
:101AD2006B2D6C2D6E2DD617722D7F30DC005C08BD
:101AE200D6056636DC005C08D700E41F792D7A2D16
:101AF2007B2DD7170800210023088039A800280869
:101B0200AD002335A8002808B300A21F892D8A2D15
:101B12008B2D3314330803198F2D902D9F2D330AEB
:101B2200031D942D952D9D2D0030A3000030A200A1
:101B32000030A1000030A000A217A72D0030A300A2
:101B42000030A2000030A1000030A0002708803938
:101B5200A8002808AD062735A8002808AE00A61F51
:101B6200B32DB42DB52D2E142E080319B92DBA2D6F
:101B7200C92D2E0A031DBE2DBF2DC72D0030A70073
:101B82000030A6000030A5000030A400A617D12D19
:101B92000030A7000030A6000030A5000030A400ED
:101BA2002E080319D52DD62DDB2D3308031DDA2D72
:101BB200DB2DE42D0030A3000030A2000030A10094
:101BC2000030A000FF2F2008A80028082000AE0047
:101BD200210026089B3126238D3120002F08210069
:101BE200B90020002E082100B8003808A800A90179
:101BF200AA01AB012B08B2002A08B1002908B000E3
:101C02002808AF003908A800A901AA01AB012B08D6
:101C1200B7002A08B6002908B5002808B400210830
:101C2200A80028082000AE00210025089B312623A9
:101C32008D3120002F082100B90020002E0821003C
:101C4200B8003808A800A901AA01AB012808AF070B
:101C52002908B03D2A08B13D2B08B23D3908A80039
:101C6200A901AA01AB012808B4072908B53D2A0831
:101C7200B63D2B08B73D2208A80028082000AE0078
:101C8200210024089B3126238D3120002F082100BA
:101C9200B90020002E082100B8003808A800A901C8
:101CA200AA01AB012808AF072908B03D2A08B13DB7
:101CB2002B08B23D3908A800A901AA01AB012808E6
:101CC200B4072908B53D2A08B63D2B08B73D0830B0
:101CD200AF35B00DB10DB20D890B692E2108A800E8
:101CE20028082000AE00210024089B3126238D31D4
:101CF20020002F082100B90020002E082100B80082
:101D02003808AF073908B03D0030B13DB23D200878
:101D1200A80028082000AE00210025089B312623B8
:101D22008D3120002F082100B90020002E0821004B
:101D3200B8003808AF073908B03D0030B13DB23DB8
:101D42000830AF35B00DB10DB20D890BA22E2008AF
:101D5200A80028082000AE00210024089B31262379
:101D62008D3120002F082100B90020002E0821000B
:101D7200B8003808AF073908B03D0030B13DB23D78
:101D82002108A80028082000AE00210026089B3167
:101D920026238D3120002F082100B90020002E08B3
:101DA2002100B8003808B4073908B53D0030B63D07
:101DB200B73D2208A80028082000AE00210025080F
:101DC2009B3126238D3120002F082100B9002000ED
:101DD2002E082100B8003808B4073908B53D003094
:101DE200B63DB73D2208A80028082000AE00210019
:101DF20026089B3126238D3120002F082100B900AF
:101E020020002E082100B8003808A8003908A900CF
:101E1200AA01AB010830A835A90DAA0DAB0D890B9B
:101E22000C2F2808B4072908B53D2A08B63D2B080F
:101E3200B73D2F08A8003008A9003108AA003208CF
:101E4200AB001830AB36AA0CA90CA80C890B232FB7
:101E52002808B4072908B53D2A08B63D2B08B73D26
:101E62000830AF35B00DB10DB20D890B322F3308EA
:101E72002E07A800A901A90D2808823EB800FF304C
:101E8200293DB9005B2F0130B435B50DB60DB70D44
:101E9200890B452FB21F4E2F4F2F502F3414013074
:101EA200AF35B00DB10DB20D890B512FFF30B80710
:101EB200FF30B93DB61F5E2F5F2F442FAE01B21F18
:101EC200632F642F802FFF302F05A800FF303005CD
:101ED200A900FF303105AA007F303205AB002B0884
:101EE2002A04290428040319772F782F7B2FAE01A7
:101EF200AE0A802F341C7E2F7F2F802F782F2E0842
:101F02000319842F852FAD2F0130B4070030B53D62
:101F12000030B63D0030B73D371C902F912FAD2FCA
:101F22003408A8003508A9003608AA003708AB0013
:101F32000130AC00AB37AA0CA90CA80CAC0B9B2F40
:101F42002B08B7002A08B6002908B5002808B400F3
:101F52000130B8070030B93D3908803AA800803016
:101F62002802031DB62FFF303802031CB92FBA2FE7
:101F7200C42F7F302100B7008030B6000030B5009A
:101F82000030B400F32F21003908803AA8008030D5
:101F92002802031DCE2F013038020318D12FD22F71
:101FA200DD2F00302100B7000030B6000030B50050
:101FB2000030B400AD01F32F21003808A800280832
:101FC200B300FF30B405FF30B5057F30B6050030F1
:101FD200B705331CED2FEE2FEF2FB6173336A800BF
:101FE2002808B7002D08A8002808B7043708A3005E
:0E1FF2003608A2003508A1003408A00008003F
:10200200640080010131890B02280034083023006A
:102012009F0090309D0024309E00A0309B00013034
:102022009C0000302000AE000030AF009931B72193
:10203200903100302000AE000030AF009931C02155
:10204200903100302000AE000030AF009931AE2157
:1020520090312000DF0108002000C101C201BA0155
:10206200BB0137280130B4070030B53DC001C00ABA
:1020720034088600350887002030010603194228FB
:102082004328582834088600350887000108F73E9F
:10209200B600FF3003180030B700003037020530B9
:1020A20003193602031C562857285828C001400835
:1020B200B600B7013608BC003708BD003C083D0435
:1020C200031D6428652833286F280130BA000030C8
:1020D200BB000130B4070030B53DA12834088600AA
:1020E200350887000108B600B7013708003A03191E
:1020F2007B28A12836082B3A03196A28063A0319C5
:102102006628A12834088600350887004208AF00F7
:102112004108AE000A30B0000030B1009A31C4224A
:10212200903120002F08B70001082E02B600031CD0
:10213200B7033608303EC1000030373DC2006A287E
:1021420034088600350887000108D03EB600FF300B
:1021520003180030B700003037020A300319360284
:10216200031CB428B6280130B7280030B800B901E2
:102172003808BE003908BF003E083F04031DC228CC
:10218200C32883283A083B04031DC828C928D52838
:102192004109B6004209B700B60A0319B70A360860
:1021A200B4003708B500D9284208B5004108B40088
:1021B20008005330250020060319E028E128E7280B
:1021C20020005C03031DE628E728872A2000DC01A3
:1021D200DC0A2100BC01BD01712A53302500200612
:1021E200031DF428F528FB2830302000D1005108C7
:1021F2002500A00021003C08A03E86000230870096
:102202007630010603190629072928293C08A03E31
:102212008600023087006C30010603191129122949
:1022220028293C08A03E860002308700643001065F
:1022320003191C291D2928293C08A03E86000230CA
:10224200870023300106031D27292829592A3C0823
:10225200A03E86000230870076300106031D322937
:1022620033298529A0302000B4000030B500903118
:102272002D20903120003408C3003508C400890D98
:10228200893B8909C500C60001309E316F26903115
:10229200200046082300D000200045082300CF007C
:1022A200200044082300CE00200043082300CD0074
:1022B2002100B401B5016D2920302000D100210098
:1022C2003408A03E860087012000510881000130B9
:1022D2002100B4070030B53DA0302000AE00003030
:1022E200AF009A318E22903120002F082100350252
:1022F200031D7F2920002E0821003402031C82299D
:1023020083295D292000DB0121003C08A03E8600D4
:10231200023087006C300106031D90299129CD29D6
:10232200A0302000B4000030B50090312D20903153
:10233200200035082300E200200034082300E100D9
:102342002100B601B701B52920302000D1002100BB
:102352003608A03E86008701200051088100013026
:102362002100B6070030B73DA0302000AE0000309B
:10237200AF009A318E22903120002F0821003702BF
:10238200031DC72920002E0821003602031CCA297A
:10239200CB29A5292000DB0121003C08A03E8600B4
:1023A2000230870064300106031DD829D929122A78
:1023B200A0302000B4000030B50090312D209031C3
:1023C20020003508E1003408E0002100B801B9011D
:1023D200FA2920302000D10021003808A03E8600D2
:1023E200870120005108810001302100B807003028
:1023F200B93DA0302000AE000030AF009A318E22ED
:10240200903120002F0821003902031D0C2A2000E0
:102412002E0821003802031C0F2A102AEA29200064
:10242200DB0121003C08A03E8600023087002330F9
:102432000106031D1D2A1E2A6C2A20006008610461
:102442000319242A252A2A2A0230D1005108DC0045
:102452002E2A0330D1005108DC002100BA01BB0151
:10246200422A20302000D10021003A08A03E8600F6
:10247200870120005108810001302100BA07003095
:10248200BB3DA0302000AE000030AF009A318E225A
:10249200903120002F0821003B02031D542A200006
:1024A2002E0821003A02031C572A582A322A6C2A83
:1024B2003C08A03E86000230870001082000D100BF
:1024C2005B08A03E86008701510881005B08013E3F
:1024D200D1005108DB0001302100BC070030BD3DB6
:1024E200A0302000AE000230AF009A318E2290312F
:1024F20020002F0821003D02031D832A20002E0800
:1025020021003C02031C862A872AEE2808002100AB
:1025120041088039C2004208CB004135C20042085E
:10252200D200C01F952A962A972A521452080319DC
:102532009B2A9C2AAC2A520A031DA02AA12AA92A54
:102542000030C1000030C0000030BF000030BE00CB
:10255200C017C101B42A0030C1000030C0000030F1
:10256200BF000030BE003D088039C2004208CB06E1
:102572003D35C2004208D300BC1FC02AC12AC22A6C
:10258200531453080319C62AC72AD72A530A031D0C
:10259200CB2ACC2AD42A0030BD000030BC00003047
:1025A200BB000030BA00BC17BD01DF2A0030BD00FD
:1025B2000030BC000030BB000030BA003D083C04D3
:1025C2003B043A04031DE62AE72A002B0030C1002F
:1025D2000030C0000030BF000030BE008030C004B8
:1025E2007F30C1044B08C2004208C1044108BD004B
:1025F2004008BC003F08BB003E08BA003B2C520812
:10260200031D042B052B0E2B0030BD000030BC0037
:102612000030BB000030BA003B2C5208C200C3019C
:102622004308C50053084202C400031CC503440802
:102632007F3ECC000030453DCD004108CA00400835
:10264200C9003F08C8003E08C7000030C100003082
:10265200C0000030BF000030BE000030D1000030AA
:10266200D0000030CF000030CE00D301762B5308CB
:1026720003193C2B3D2B572B0130C735C80DC90D13
:10268200CA0D890B3E2B0130BE35BF0DC00DC10DE9
:10269200890B452BD11F4E2B4F2B502B3E14013053
:1026A200CE35CF0DD00DD10D890B512B3D084A02ED
:1026B200031D652B3C084902031D652B3B0848029C
:1026C200031D652B3A084702031C682B692B722BEA
:1026D20051173A08C7023B08C83B3C08C93B3D08B2
:1026E200CA3B0130C2004208D3071A305302031C0E
:1026F2007B2B7C2B382B4A084904480447040319D6
:10270200832B842B9D2B4E149D2B0130BE35BF0D88
:10271200C00DC10D890B872BD11F902B912B922BB2
:102722003E140130CE35CF0DD00DD10D890B932B38
:10273200FF30CC07FF30CD3DC01FA02BA12B862B35
:10274200D301D11FA52BA62BC22BFF304E05C200F1
:10275200FF304F05C300FF305005C4007F305105E4
:10276200C50045084404430442040319B92BBA2B9B
:10277200BD2BD301D30AC22B3E1CC02BC12BC22BB3
:10278200BA2B53080319C62BC72BEF2B0130BE07F8
:102792000030BF3D0030C03D0030C13D411CD22B56
:1027A200D32BEF2B3E08C2003F08C3004008C400F1
:1027B2004108C5000130C600C537C40CC30CC20CA9
:1027C200C60BDD2B4508C1004408C0004308BF000A
:1027D2004208BE000130CC070030CD3D4D08803AA2
:1027E200C20080304202031DF82BFF304C02031C52
:1027F200FB2BFC2B092CFF302100CC000030CD003C
:102802000030C1000030C0000030BF000030BE0008
:1028120021004D08803AC20080304202031D132C71
:1028220001304C020318162C172C232C2100CC014A
:10283200CD010030C1000030C0000030BF000030C8
:10284200BE00CB0121004C08C2004208D200521C3B
:102852002B2C2C2C2E2CC017322C7F30C20042087D
:10286200C0055236C2004208C1004B08C2004208ED
:10287200C104F72A0800543025002006031D422C0B
:10288200432C972C2200B401A0302000D8008630BF
:10289200D90057082300D800200056082300D7008B
:1028A200200055082300D600200054082300D5003C
:1028B20020005708B1005608B0005508AF00540870
:1028C200AE000030B5000030B4000030B30000307C
:1028D200B2009C31AD2494310318702C712C862CDB
:1028E20020005708B1005608B0005508AF00540840
:1028F200AE009A311522943120003108D7003008F9
:10290200D6002F08D5002E08D40020005708240036
:10291200D400200056082400D300200055082400CB
:10292200D200200054082400D100072E4230200695
:10293200031D9C2C9D2CCC2C2200B401A030200025
:10294200D8008630D90057082300D8002000560846
:102952002300D700200055082300D6002000540889
:102962002300D50000302000B1000030B00000305C
:10297200AF000030AE005708B5005608B400550845
:10298200B3005408B2009C31AD2494310318CA2C10
:10299200CB2C862C712C4C302006031DD12CD22C32
:1029A2003A2D2200B401A0302000D8008630D90090
:1029B20057082100A300200056082100A200200091
:1029C20055082100A100200054082100A000003079
:1029D200A7000030A6000030A5000030A4009B3103
:1029E2004A2394310318F62CF72C072D20005708A0
:1029F2002300D800200056082300D70020005508E5
:102A02002300D600200054082300D5000030200007
:102A1200D7000030D6000030D5000030D40040305E
:102A22002300D4004030D3000030D2000030D10067
:102A3200200057082400D400200056082400D300A8
:102A4200200055082400D200200054082400D100A0
:102A5200230054082400D000230053082400CF0090
:102A6200230052082400CE00230051082400CD0088
:102A7200072E52302006031D3F2D402DA82D220087
:102A8200B401A0302000D8008630D90057082100B8
:102A9200A300200056082100A200200055082100B2
:102AA200A100200054082100A0000030A70000303F
:102AB200A6000030A5000030A4009B314A239431C7
:102AC2000318642D652D752D200057082300D800AA
:102AD200200056082300D700200055082300D60006
:102AE200200054082300D50000302000D700003019
:102AF200D6000030D5000030D400C0302300D4000E
:102B02004030D3000030D2000030D10020005708FE
:102B12002400D400200056082400D30020005508C9
:102B22002400D200200054082400D10023005408BD
:102B32002400D000230053082400CF0023005208B1
:102B42002400CE00230051082400CD00072E4E3071
:102B52002006031DAD2DAE2D072E2200B401B201B9
:102B6200B301230058082100A300230057082100C5
:102B7200A200230056082100A100230055082100CD
:102B8200A000200057082100A700200056082100BD
:102B9200A600200055082100A500200054082100AD
:102BA200A4009B314A2394310318D82DD92DE92D45
:102BB200230058082000D700230057082000D60021
:102BC200230056082000D500230055082000D40019
:102BD20000302300D4000030D3000030D200003097
:102BE200D1002000D801D90100302400D4000030E7
:102BF200D3000030D2000030D1000030D0000030CD
:102C0200CF000030CE000030CD00072E080000308B
:102C12002200D6000030D5000030D4000030D300AE
:102C220040302100A3000B30A2000030A100003090
:102C3200A00022004A082100A70022004908210022
:102C4200A600220048082100A50022004708210012
:102C5200A4008D317C25963121002308D70022085B
:102C6200D6002108D5002008D4004230BD00003033
:102C7200BC000030BB000030BA0022004E08210028
:102C8200C10022004D082100C00022004C08210092
:102C9200BF0022004B082100BE00923188229631EB
:102CA20021003D08DB003C08DA003B08D9003A0865
:102CB200D8008B3144239631210057082200D200DC
:102CC200210056082200D100210055082200D00020
:102CD200210054082200CF0040302100A3000B3015
:102CE200A2000030A1000030A00022004A0821000A
:102CF200A700220049082100A6002200480821005E
:102D0200A500220047082100A4008D317C259631C0
:102D120021002308EB002208EA002108E90020082C
:102D2200E8004230BD000030BC000030BB00003083
:102D3200BA0022004E082100C10022004D082100E5
:102D4200C00022004C082100BF0022004B082100D5
:102D5200BE0092318822963121003D08EF003C08E6
:102D6200EE003B08ED003A08EC009A31E42296317D
:102D720021006B082200D60021006A082200D5003B
:102D8200210069082200D400210068082200D30033
:102D920052082000B100220051082000B000220099
:102DA20050082000AF0022004F082000AE00003083
:102DB200B5000030B4000030B3000030B2009C31E6
:102DC200AD2496310318E62EE72E0D2F220052086D
:102DD2002000B100220051082000B000220050085B
:102DE2002000AF0022004F082000AE009A311522C9
:102DF2009631200031082200D20020003008220043
:102E0200D10020002F082200D00020002E0822002E
:102E1200CF0027008C130F2F27008C172200560893
:102E22002000B100220055082000B0002200540802
:102E32002000AF00220053082000AE000030B50091
:102E42000030B4000030B3000030B2009C31AD2439
:102E5200963103182D2F2E2F542F220056082000B2
:102E6200B100220055082000B000220054082000C2
:102E7200AF00220053082000AE009A31152296318D
:102E8200200031082200D600200030082200D500A0
:102E920020002F082200D40020002E082200D30098
:102EA20027008C15562F27008C1122005208210072
:102EB200A300220051082100A20022005008210094
:102EC200A10022004F082100A0000030A70000301E
:102ED200A6000030A5000030A4009B314A239631A1
:102EE200031C742F752F7B2FE8302200DF00033084
:102EF200E000AB2F41302100C100FB30C000533055
:102F0200BF00F830BE00220052082100BD0022009E
:102F120051082100BC00220050082100BB00220001
:102F22004F082100BA0092318822963121003D08D3
:102F3200EB003C08EA003B08E9003A08E8009B3154
:102F420099239631210069082200E00021006808D7
:102F52002200DF0056082100A300220055082100AC
:102F6200A200220054082100A100220053082100DF
:102F7200A0000030A7000030A6000030A5000030FD
:102F8200A4009B314A239631031CC82FC92FCF2F8F
:102F9200E8302200DD000330DE00FF2F4230210046
:102FA200C1000530C000A930BF00FC30BE002200C5
:102FB20056082100BD00220055082100BC00220055
:102FC20054082100BB00220053082100BA009231AC
:102FD2008822963121003D08EB003C08EA003B08BC
:102FE200E9003A08E8009B319923963121006908EB
:0E2FF2002200DE00210068082200DD00080039
:10332E00163021009700080000340034C8344234AF
:10333E00E8340334E83403342000110E890C0139CB
:10334E00080027000C148C100C168C12080020009C
:10335E002F082500D90020002E082500D8000800CF
:10336E0020002F082500DD0020002E082500DC009F
:10337E00080020002F082500DB0020002E08250065
:10338E00DA00080020002F082500D30020002E08A8
:10339E002500D200080020002F082500D7002000AD
:1033AE002E082500D600080020002F082500D50085
:1033BE0020002E082500D400080020002F0824002D
:1033CE00EE0020002E082400ED0008002000AE00C4
:1033DE00141EF229F329EF292E0829009200080065
:1033EE00803024009400083095009601273092001A
:1033FE0095120800803024009C0008309D009E012C
:10340E0027309A009D1208002000AE00111E102ACF
:10341E00112A0D2A2E0823009A00080020003108D8
:10342E0030042F042E0403191D2A1E2A202A803050
:10343E00B106080024006D086E040319272A282AF5
:10344E002D2A6E088A006D080A009A3108002000A5
:10345E00111022006208F1006108F0009A314B222F
:10346E009A319A3121229A3108002000911E402A69
:10347E00412A3C2ADF0123009D1C462A472A492A5D
:10348E001D121D16190808002000181D4F2A502A5B
:10349E00572A1810710897007008960018145B2AA6
:1034AE007108970070089600080020002E08D03E84
:1034BE00B000FF302F3DB100003031020A30031949
:1034CE003002031C6B2A6D2A01306E2A0030B200C6
:1034DE00B3013208AE003308AF0008009931F7216E
:1034EE009A319A3101229A31883108209A318831E5
:1034FE0001209A31993197219A319A31A8229A3125
:10350E00903107209A318731D4279A310800200054
:10351E002F08B1002E08B000982A0130AE070030F7
:10352E00AF3D2E0886002F0887000108031DA02A34
:10353E00A12A942A30082E02AE0031082F3BAF008C
:10354E00080020009901C1309700803096001110BC
:10355E0017082200E200200016082200E1002100D8
:10356E00111403302000AE000030AF009931E42179
:10357E009A3141302000980008002000B201B301BA
:10358E002E1CCA2ACB2ACF2A3008B2073108B33DE7
:10359E000130B035B10D890BD02A0130AF36AE0CEB
:1035AE00890BD52A2E082F04031DDE2ADF2AC72AEF
:1035BE003308AF003208AE00080080302100EB0661
:1035CE006F08D7006E08D6006D08D5006C08D400C1
:1035DE006B08DB006A08DA006908D9006808D800B1
:1035EE008B3144239A3121005708EB005608EA002C
:1035FE005508E9005408E80008002000B201B20A9C
:10360E0020302E062F0403190D2B0E2B1E2B2E08E9
:10361E00F73EB000FF302F3DB100003031020530D3
:10362E0003193002031C1C2B1D2B1E2BB20132085A
:10363E00B000B1013008AE003108AF000800200024
:10364E00B600B201B3012E08B000B1013008B400CB
:10365E003108B500361C342B352B392B3408B20704
:10366E003508B33D0130B435B50D890B3A2B031037
:10367E00B60C3608031D442B452B312B3308AF00F7
:10368E003208AE000800003021002005A8000030EE
:10369E002105A90080302205AA007F302305AB004A
:1036AE002B082A0429042804031D5E2B5F2B672B8D
:1036BE000030A3000030A2000030A1000030A000B6
:1036CE0000302405A80000302505A900803026050D
:1036DE00AA007F302705AB002B082A0429042804F2
:1036EE00031D7A2B7B2B832B0030A7000030A60006
:1036FE000030A5000030A40027082306031D912BDF
:10370E0026082206031D912B25082106031D912B49
:10371E00240820060319942B952B972B0310982B16
:10372E0003140800031021006A0D6B0D2200C20065
:10373E0042082000D2005208031DA62BA72BB12B46
:10374E0000302100EB000030EA000030E9000030CC
:10375E00E800212C210068082200C200210069081F
:10376E002200C30021006A082200C40021006B0859
:10377E002200C5001F30C536C40CC30CC20C890B09
:10378E00C22B4208C60046082000D1002100EA17CD
:10379E00FF30E805FF30E905FF30EA050030EB05A4
:1037AE0096302000D202D21FDD2BDE2BF92B5208D1
:1037BE00803A973E0318E42BE52BE62BA72B01301E
:1037CE002100EB36EA0CE90CE80C890BE72B0130F3
:1037DE002200C20042082000D207031DF72BF82B4F
:1037EE00E62B102C20305202031CFE2BFF2B0B2C31
:1037FE00A72B01302100E835E90DEA0DEB0D890B01
:10380E00012C01302000D2025208031D0F2C102C67
:10381E00002C51080319142C152C212C2100E80919
:10382E00E909EA09EB09E80A0319E90A0319EA0AA0
:10383E000319EB0A0800003020002005A800003014
:10384E002105A90080302205AA007F302305AB0098
:10385E002B082A0429042804031D362C372C3F2C50
:10386E000030A3000030A2000030A1000030A00004
:10387E0000302405A80000302505A900803026055B
:10388E00AA007F302705AB002B082A042904280440
:10389E00031D522C532C5B2C0030A7000030A600C9
:1038AE000030A5000030A400A31F5E2C5F2C772CE7
:1038BE000030A8000030A9000030AA008030AB0014
:1038CE002008A8022108A93B2208AA3B2308AB3BEB
:1038DE002B08A3002A08A2002908A1002808A0008E
:1038EE00A71F7A2C7B2C932C0030A8000030A90047
:1038FE000030AA008030AB002408A8022508A93B9E
:10390E002608AA3B2708AB3B2B08A7002A08A600CF
:10391E002908A5002808A4008030A3068030A70639
:10392E0027082302031DA52C26082202031DA52C01
:10393E0025082102031DA52C240820020318A82CFB
:10394E00A92CAB2C0310AC2C031408000030200063
:10395E002E05B60000302F05B70080303005B800B8
:10396E007F303105B9003908380437043604031D99
:10397E00C12CC22CCA2C0030B1000030B000003077
:10398E00AF000030AE0000303205B6000030330517
:10399E00B70080303405B8007F303505B9003908DE
:1039AE00380437043604031DDD2CDE2CE62C0030E3
:1039BE00B5000030B4000030B3000030B200B11FCB
:1039CE00E92CEA2C022D0030B6000030B700003092
:1039DE00B8008030B9002E08B6022F08B73B300869
:1039EE00B83B3108B93B3908B1003808B000370888
:1039FE00AF003608AE00B51F052D062D1E2D00306A
:103A0E00B6000030B7000030B8008030B900320880
:103A1E00B6023308B73B3408B83B3508B93B390812
:103A2E00B5003808B4003708B3003608B20080304D
:103A3E00B1068030B50635083102031D302D34082D
:103A4E003002031D302D33082F02031D302D320896
:103A5E002E020318332D342D362D0310372D03145B
:103A6E0008009A3175229D311C302000AE001F30A7
:103A7E00AF009931E4219D318B170B1707302200CF
:103A8E00DC001730DB006A30890B4B2DDB0B4B2D26
:103A9E00DC0B4B2D000022000E159931A8219D3113
:103AAE009931A3219D31003A03195E2D5F2D7A2D98
:103ABE009A313C229D312200DB003408A03E860064
:103ACE00023087005B0881003408A03E8600023079
:103ADE00870001089931ED219D3122003408013E05
:103AEE00DB005B08B400220034089F3E86000230E3
:103AFE00870023300106031D852D862D942D8831D8
:103B0E003A209D318331ED239D319031DA209D3164
:103B1E0080315F209D312200B40194313C249D31CF
:103B2E00893135219D3187311F279D312400500861
:103B3E002200CA0024004F082200C90024004E08AB
:103B4E002200C80024004D082200C700240054089B
:103B5E002200CE00240053082200CD00240052087B
:103B6E002200CC00240051082200CB0096310826FA
:103B7E009D31572D80311928F80078080319C82D6A
:103B8E00C92DDD2DF31FCC2DCD2DDD2D7009FA00A5
:103B9E007109FB007209FC007309FD00FA0A031992
:103BAE00FB0A0319FC0A0319FD0AE52D7308FD0033
:103BBE007208FC007108FB007008FA0073087204AA
:103BCE0071047004031DEC2DED2DF62D0030F30065
:103BDE000030F2000030F1000030F0006E2E963012
:103BEE00F4007408F900062E0130F4007408F90789
:103BFE000130FD36FC0CFB0CFA0C890B002EFE304E
:103C0E007D05031D0B2E0C2EFB2D202E0130F400F6
:103C1E007408F9070130FA070030FB3D0030FC3D17
:103C2E000030FD3D0130FD36FC0CFB0CFA0C890B0F
:103C3E001A2EFF307D05031D252E262E0D2E302E1D
:103C4E000130F9020130FA35FB0DFC0DFD0D890B2B
:103C5E002A2EFC1B332E342E3A2E023079020318F4
:103C6E00392E3A2E272E79183D2E3E2E462EFF3017
:103C7E00FA05FF30FB057F30FC05FF30FD05031014
:103C8E00F90C7908F400F501F601F7011830F43556
:103C9E00F50DF60DF70D890B4E2E7408FA04750806
:103CAE00FB047608FC047708FD0478080319602EDF
:103CBE00612E662EF31F642E652E662EFD177D086F
:103CCE00F3007C08F2007B08F1007A08F00008008F
:103CDE002000CB004B080319752E762E8A2EC61F98
:103CEE00792E7A2E8A2E4309CD004409CE0045093D
:103CFE00CF004609D000CD0A0319CE0A0319CF0A08
:103D0E000319D00A922E4608D0004508CF00440869
:103D1E00CE004308CD004608450444044304031D69
:103D2E00992E9A2EA32E0030C6000030C50000300A
:103D3E00C4000030C3001B2F9630C7004708CC00CC
:103D4E00B32E0130C7004708CC070130D036CF0C58
:103D5E00CE0CCD0C890BAD2EFE305005031DB82EAA
:103D6E00B92EA82ECD2E0130C7004708CC07013042
:103D7E00CD070030CE3D0030CF3D0030D03D01307C
:103D8E00D036CF0CCE0CCD0C890BC72EFF30500584
:103D9E00031DD22ED32EBA2EDD2E0130CC020130D1
:103DAE00CD35CE0DCF0DD00D890BD72ECF1BE02EDE
:103DBE00E12EE72E02304C020318E62EE72ED42E0B
:103DCE004C18EA2EEB2EF32EFF30CD05FF30CE052C
:103DDE007F30CF05FF30D0050310CC0C4C08C70048
:103DEE00C801C901CA011830C735C80DC90DCA0DA1
:103DFE00890BFB2E4708CD044808CE044908CF0492
:103E0E004A08D0044B0803190D2F0E2F132FC61F6F
:103E1E00112F122F132FD0175008C6004F08C500B0
:103E2E004E08C4004D08C3000800E83022005F06AB
:103E3E000330031960060319252F262F752F230033
:103E4E006508F0006608F100F201F30100309D31C3
:103E5E00C3259F3173082000A3007208A2007108C9
:103E6E00A1007008A000220060082000AD00220012
:103E7E005F082000AC00AD36AC0CAD36AC0C2C0897
:103E8E00F0002D08F100F201F30100309D31C32541
:103E9E009F3173082000A7007208A6007108A500C4
:103EAE007008A4009C3122249F3103185F2F602FCD
:103EBE00662F01302300E5070030E63D752F031015
:103ECE0027000C1D031403186D2F702F27000C15DF
:103EDE00722F27000C112300E501E601E8302200C5
:103EEE005D06033003195E0603197E2F7F2FCE2F3A
:103EFE0023006308F0006408F100F201F3010030C2
:103F0E009D31C3259F3173082000A3007208A200C3
:103F1E007108A1007008A00022005E082000AD000C
:103F2E0022005D082000AC00AD36AC0CAD36AC0CFA
:103F3E002C08F0002D08F100F201F30100309D3144
:103F4E00C3259F3173082000A7007208A6007108D0
:103F5E00A5007008A4009C3122249F310318B82FAD
:103F6E00B92FBF2F01302300E3070030E43DCE2FE1
:103F7E00031027000C1F03140318C62FC92F270088
:103F8E000C17CB2F27000C132300E301E4012000B4
:103F9E00590822003302031DD82F20005808220092
:103FAE0032020318DB2FDC2FE32F3208013EB20062
:103FBE000030333DB300FF2F2000DE01003024001F
:103FCE00D0000030CF000030CE000030CD000030E9
:103FDE00D4000030D3000030D2000030D100E830E1
:103FEE002200DF000330E000E830DD000330DE00A9
:103FFE00080000340034003400340034003400343F
:10400E000034003400340034003400340034003402
:10401E0000340034003400340034003400340034F2
:10402E0000340034003400340034003400340034E2
:10403E0000340034003400340034003400340034D2
:10404E0000340034003400340034003400340034C2
:10405E0000340034003400340034003400340034B2
:10406E0000340034003400340034003400340034A2
:02407E0000340C
:020000040001F9
:04000E00E409FF3CC6
:00000001FF
