:020000040000FA
:1000000080311928E83403347E1480310B1F09280D
:100010000A2817282100111C0E280F281728200055
:10002000111C132814281728A631702680317E1041
:10003000090080311B28803102208031E0008031AE
:1000400003208031E100E5308400A5308500663072
:100050008600013087000530A531F0258031DC3085
:100060008400A53085006A308600023087000430A5
:10007000A531F025803154308400003085000C30EB
:10008000A531EA2580312100EF01443084000130A0
:1000900085002230A531EA258031A030840001306E
:1000A00085004E30A531EA258031203084000230B1
:1000B00085004A30A531EA258031A0308400023025
:1000C00085003A30A531EA2580317E102000A73125
:1000D000822F43302500280603196F2870287628C0
:1000E00022005D03031D75287628452A2200DD01C4
:1000F000DD0A2600C401C5012F2A43302500280649
:10010000031D832884288A2830302000D300530818
:100110002500A80026004408A83E8600023087007B
:1001200072300106031995289628B7284408A83E7E
:100130008600023087006C3001060319A028A12830
:10014000B7284408A83E86000230870074300106B4
:100150000319AB28AC28B7284408A83E8600023013
:10016000870023300106031DB628B728112A44084A
:10017000A83E86000230870072300106031DC128A8
:10018000C228152920302000B4000330B5009B316F
:100190000A23803120003408C3003508C400890DCB
:1001A000893B8909C500C60001309A315D22803142
:1001B000200046082300E900200045082300E8004D
:1001C000200044082300E700200043082300E60045
:1001D0002600BC01BD01FD2820302000D3002600F0
:1001E0003C08203E86000330870020005308810031
:1001F00001302600BC070030BD3D20302000AE009D
:100200000330AF00A631C026803120002F08260021
:100210003D02031D0F2920002E0826003C02031C6E
:1002200012291329EC282200DE0126004408A83EEA
:100230008600023087006C300106031D2029212929
:10024000742920302000B4000330B5009B310A230C
:10025000803120003408C3003508C400890D893B73
:100260008909C500C60001309A315D228031200025
:1002700046082300AF00200045082300AE00200000
:1002800044082300AD00200043082300AC002600F2
:10029000BE01BF015C2920302000D30026003E08AB
:1002A000203E860003308700200053088100013083
:1002B0002600BE070030BF3D20302000AE000330D6
:1002C000AF00A631C026803120002F0826003F0253
:1002D000031D6E2920002E0826003E02031C7129F2
:1002E00072294B292200DE0126004408A83E860020
:1002F0000230870074300106031D7F298029D3292D
:1003000020302000B4000330B5009B310A23803137
:1003100020003408C3003508C400890D893B8909D1
:10032000C500C60001309A315D22803120004608A8
:100330002300AB00200045082300AA002000440849
:100340002300A900200043082300A8002600C001C4
:10035000C101BB2920302000D30026004008203EE8
:1003600086000330870020005308810001302600FA
:10037000C0070030C13D20302000AE000330AF0088
:10038000A631C026803120002F0826004102031D1F
:10039000CD2920002E0826004002031CD029D12997
:1003A000AA292200DE0126004408A83E8600023069
:1003B000870023300106031DDE29DF292A2A0230A7
:1003C0002000D30053082200DD002600C201C30133
:1003D000FA2920302000D30026004208203E860063
:1003E0000330870020005308810001302600C20737
:1003F0000030C33D20302000AE000330AF00A631F6
:10040000C026803120002F0826004302031D0C2A3D
:1004100020002E0826004202031C0F2A102AE92978
:100420002A2A4408A83E86000230870001082000DE
:10043000D30022005E08203E8600033087002000A3
:100440005308810022005E08013E2000D3005308BB
:100450002200DE0001302600C4070030C53DA83070
:100460002000AE000230AF00A631C026803120004F
:100470002F0826004502031D412A20002E082600D1
:100480004402031C442A452A7D28023022005D06CE
:10049000031D4B2A4C2AF62B23002F082100A7000E
:1004A00023002E082100A60023002D082100A5000E
:1004B00023002C082100A4004130A300F030A2004A
:1004C0000030A1000030A0008D317C25803121005A
:1004D0002308EB002208EA002108E9002008E800D0
:1004E000983112208031210069082200E5002100A6
:1004F00068082200E40064082000C30022006508A8
:100500002000C400C501C60100309A315D2280314F
:10051000200046082100BD00200045082100BC0045
:10052000200044082100BB00200043082100BA003D
:100530004330C100B430C0000030BF000030BE0006
:1005400090317420803121003D082300A700210054
:100550003C082300A60021003B082300A500210041
:100560003A082300A40027082100A700230026083A
:100570002100A600230025082100A500230024084F
:100580002100A40023002B082100A30023002A0837
:100590002100A200230029082100A100230028082F
:1005A0002100A0008D317C25803121002308260008
:1005B000BB00210022082600BA00210021082600E5
:1005C000B900210020082600B8003B082100A70040
:1005D00026003A082100A600260039082100A500BF
:1005E000260038082100A4004430A3007A30A2007D
:1005F0000030A1000030A0008D317C258031210029
:100600002308C1002208C0002108BF002008BE0046
:100610004030BD00C030BC000030BB000030BA002C
:1006200090317420803121003D08EB003C08EA0045
:100630003B08E9003A08E800983112208031210097
:1006400069082300DB00210068082300DA0040303D
:100650002100A3004930A2000F30A100D030A0003B
:10066000230069082100A700230068082100A600D4
:10067000230067082100A500230066082100A400CC
:100680008D317C258031210023082600BB0021000C
:1006900022082600BA00210021082600B900210006
:1006A00020082600B800230027082100A30023000B
:1006B00026082100A200230025082100A100230014
:1006C00024082100A00026003B082100A7002600E6
:1006D0003A082100A600260039082100A5002600BE
:1006E00038082100A4008D317C25803121002308A9
:1006F0002600B700210022082600B60021002108AC
:100700002600B500210020082600B4004430210056
:10071000BD000730BC000030BB000030BA004230E2
:10072000A300C830A2000030A1000030A0002600C5
:1007300037082100A700260036082100A600260061
:1007400035082100A500260034082100A4008D31C1
:100750007C25803121002308C1002208C000210827
:10076000BF002008BE0090317420803121003D0878
:100770002300A30021003C082300A20021003B0825
:100780002300A10021003A082300A00069082100ED
:10079000BD00230068082100BC0023006708210079
:1007A000BB00230066082100BA004130C100F030D0
:1007B000C0000030BF000030BE0090317420803196
:1007C00021003D082400E90021003C082400E80045
:1007D00021003B082400E70021003A082400E6003D
:1007E00003302000D30053082200DD0008005430FD
:1007F00025002806031DFD2BFE2B822C2200DC0188
:10080000A0302000D4008630D500220053082300F9
:10081000C700220052082300C6002200510823000E
:10082000C500220050082300C40022005308210004
:10083000BD00220052082100BC0022005108210006
:10084000BB00220050082100BA000030C100003077
:10085000C0000030BF000030BE0099312621833136
:100860000318332C342C572C220053082000B100DD
:10087000220052082000B000220051082000AF00E2
:10088000220050082000AE0090310020833120006B
:1008900031082200D300200030082200D2002000BE
:1008A0002F082200D10020002E082200D0002200B4
:1008B0006A0803195C2C5D2C782C5308BB00520885
:1008C000BA005108B9005008B8000030BF0000302D
:1008D000BE000030BD000030BC004230C300C83054
:1008E000C2000030C1000030C0008B31372383319B
:1008F00022005308C7005208C6005108C50050081E
:10090000C400982E42302806031D872C882C042D05
:100910002200DC01A0302000D4008630D500220067
:1009200053082300C700220052082300C6002200FB
:1009300051082300C500220050082300C4000030E5
:100940002100BD000030BC000030BB000030BA0008
:10095000220053082100C100220052082100C000DB
:10096000220051082100BF00220050082100BE00D3
:100970009931262183310318BE2CBF2CE22C220092
:1009800053082000B100220052082000B0002200CD
:1009900051082000AF00220050082000AE00903126
:1009A00000208331200031082200D30020003008CD
:1009B0002200D20020002F082200D10020002E08A3
:1009C0002200D00022006A080319E72CE82C782CBA
:1009D0005308BB005208BA005108B9005008B800CB
:1009E0000030BF000030BE000030BD000030BC0051
:1009F0004230C300C830C2000030C1000030C00027
:100A00008B3137238331782C4C302806031D092D78
:100A10000A2D6C2D2200DC01A0302000D40086308D
:100A2000D500220053082100A30022005208210013
:100A3000A200220051082100A1002200500821003C
:100A4000A0000030A7000030A6000030A500003054
:100A5000A40088310020833103182F2D302D402D24
:100A6000220053082300C700220052082300C600BA
:100A7000220051082300C500220050082300C400B2
:100A800000302200D3000030D2000030D10000300E
:100A9000D00040302300C3004030C2000030C1000D
:100AA0000030C00022005308C7005208C600510899
:100AB000C5005008C400230043082400E5002300BB
:100AC00042082400E400230041082400E30023003E
:100AD00040082400E200982E52302806031D712D94
:100AE000722DD42D2200DC01A0302000D4008630ED
:100AF000D500220053082100A30022005208210043
:100B0000A200220051082100A1002200500821006B
:100B1000A0000030A7000030A6000030A500003083
:100B2000A4008831002083310318972D982DA82D1B
:100B3000220053082300C700220052082300C600E9
:100B4000220051082300C500220050082300C400E1
:100B500000302200D3000030D2000030D10000303D
:100B6000D000C0302300C3004030C2000030C100BC
:100B70000030C00022005308C7005208C6005108C8
:100B8000C5005008C400230043082400E5002300EA
:100B900042082400E400230041082400E30023006D
:100BA00040082400E200982E44302806031DD92D69
:100BB000DA2DF12D2200DC01E83020006006033040
:100BC00003196106031DE52DE62DEA2D2030E00016
:100BD0000030E10022000D18EE2DEF2D982E0D149F
:100BE000982E55302806031DF62DF72D0E2E2200C7
:100BF000DC01E83020006006033003196106031DA4
:100C0000022E032E072E2030E0000030E1002200EB
:100C10000D1C0B2E0C2E982E0D10982E4E302806E3
:100C2000031D132E142E982E2200DC0123004708EA
:100C30002100A300230046082100A200230045084C
:100C40002100A100230044082100A0002200530835
:100C50002100A700220052082100A600220051080E
:100C60002100A500220050082100A40088310020A6
:100C7000833103183C2E3D2E4D2E230047082200C1
:100C8000D300230046082200D2002300450822009A
:100C9000D100230044082200D00022006A08031D6E
:100CA000522E532E6E2E0030BB000030BA000030A2
:100CB000B9000030B8000030BF000030BE00003086
:100CC000BD000030BC004230C300C830C20000305C
:100CD000C1000030C0008B31372383310030230046
:100CE000C3000030C2000030C1000030C00022004C
:100CF000DA01DB012000D401D50100302200C70059
:100D00000030C6000030C5000030C40000302400B0
:100D1000E5000030E4000030E3000030E200220093
:100D2000EA01EA0AE8302000E0000330E100982EF2
:100D30000800E83022006806033003196906031929
:100D4000A22EA32EF02E23006408F0006508F10007
:100D5000F201F30100309931B1218631730820008E
:100D6000A3007208A2007108A1007008A000220070
:100D700069082000AD00220068082000AC00AD36F4
:100D8000AC0C2C08F0002D08F100F201F30100304A
:100D90009931B121863173082000A7007208A6009E
:100DA0007108A5007008A40098319B2086310318B3
:100DB000DA2EDB2EE12E01302300E4070030E53D82
:100DC000F02E031027000C1D03140318E82EEB2E41
:100DD00027000C15ED2E27000C112300E401E5017E
:100DE000E830220066060330031967060319F92E5E
:100DF000FA2E472F23006208F0006308F100F20189
:100E0000F30100309931B121863173082000A3002D
:100E10007208A2007108A1007008A00022006708F3
:100E20002000AD00220066082000AC00AD36AC0CFE
:100E30002C08F0002D08F100F201F3010030993187
:100E4000B121863173082000A7007208A60071083E
:100E5000A5007008A40098319B2086310318312F1B
:100E6000322F382F01302300E2070030E33D472FB7
:100E7000031027000C1F031403183F2F422F2700D5
:100E80000C17442F27000C132300E201E301E83084
:100E9000200060060330031961060319502F512FFB
:100EA0009E2F23006008F0006108F100F201F301B9
:100EB00000309931B121863173082000A3007208F7
:100EC000A2007108A1007008A0006108AD006008D0
:100ED000AC00AD36AC0CAD36AC0CAD36AC0C2C0861
:100EE000F0002D08F100F201F30100309931B12139
:100EF000863173082000A7007208A6007108A500BB
:100F00007008A40098319B2086310318882F892F00
:100F10008F2F01302300E0070030E13D9E2F0310AA
:100F200022008D1C03140318962F992F22008D1474
:100F30009B2F22008D102300E001E10120005508C5
:100F400022005B02031DA82F2000540822005A0231
:100F50000318AB2FAC2FB32F5A08013EDA00003034
:100F60005B3DDB00CF2F2000D90100302400E500DD
:100F70000030E4000030E3000030E20000302200E6
:100F8000C7000030C6000030C5000030C400E830A3
:100F9000E8000330E900E830E6000330E70008002D
:100FA0000830290097009030950024309600A0303A
:100FB00093000130940000302000AE000030AF00FC
:100FC000A6312126873100302000AE000030AF006E
:100FD000A6312A26873100302000AE000030AF0055
:100FE000A631182687312200E20108002000AE0059
:100FF000111EFB2FFC2FF82F2E0823009A0008004B
:10100000003021002005A80000302105A900803013
:101010002205AA007F302305AB002B082A042904EF
:101020002804031D142815281D280030A3000030B3
:10103000A2000030A1000030A00000302405A8006C
:1010400000302505A90080302605AA007F3027053D
:10105000AB002B082A0429042804031D302831285A
:1010600039280030A7000030A6000030A50000306D
:10107000A40027082306031D472826082206031D6F
:10108000472825082106031D4728240820060319A0
:101090004A284B284D2803104E280314080003301B
:1010A00022005D06031D55285628FE2823005908F6
:1010B00022006502031D60282300580822006402F4
:1010C000031C63286428F82820005908031D692898
:1010D0006A28FE2801302300D8070030D93D31307E
:1010E0008731F62788312100EC01ED018528063093
:1010F0002000D3003030890B7B28D30B7B280000E5
:1011000001302100EC070030ED3D23005B08210099
:101110006D02031D8F2823005A0821006C02031C56
:1011200092289328772820005408C3005508C4004B
:10113000C501C60100309A315D2288312000460881
:101140002100A300200045082100A200200044083F
:101150002100A100200043082100A0002300230853
:101160002100A700230022082100A6002300210857
:101170002100A500230020082100A40088310020C0
:1011800088310318C428C528E0282300230821003B
:10119000EB00230022082100EA002300210821009F
:1011A000E900230020082100E8009831122088314E
:1011B000210069082000D500210068082000D40023
:1011C0002000D901D90A2200DA01DB014130C70031
:1011D000F030C6000030C5000030C40024006908AB
:1011E000E5006808E4006708E3006608E200FE28FE
:1011F00064308731F62788312200DD0108002100A4
:1012000057088039DC005C08E4005735DC005C08D6
:10121000E600D61F0C290D290E296614660803194D
:10122000122913292329660A031D172918292029A1
:101230000030D7000030D6000030D5000030D40098
:10124000D617D7012B290030D7000030D600003048
:10125000D5000030D4005B088039DC005C08E50074
:1012600065086406031935293629372964175B3563
:10127000DC005C08E500DA1F3E293F29402965149F
:1012800065080319442945295529650A031D49297B
:101290004A2952290030DB000030DA000030D90042
:1012A0000030D800DA17DB015D290030DB000030A8
:1012B000DA000030D9000030D80066086502031853
:1012C00062296329A729641F662967296B29803051
:1012D000DC005C08E4066608DC005C08E7006508E2
:1012E000DC005C08E6006708DC005C08E5005408E8
:1012F000DC005C08E7005808DC005C08D4006708E4
:10130000DC005C08D8005508DC005C08E7005908E0
:10131000DC005C08D5006708DC005C08D9005608D2
:10132000DC005C08E7005A08DC005C08D6006708AF
:10133000DC005C08DA005708DC005C08E7005B08AA
:10134000DC005C08D7006708DC005C08DB00E70114
:101350006508DC00DD015D08DF0066085C02DE0078
:10136000031CDF035F08803AE00080306002031D49
:10137000BB291A305E02031CBE29BF29F7292100B0
:101380005708560455045404031DC729C9290130C0
:10139000CA290030DC005C08E7000030D7000030CC
:1013A000D6000030D5000030D4006508DC005C08B1
:1013B000E600FE29671CDD29DE29E42967360138AD
:1013C000DC005C08E700E6290310E70C541CE9295F
:1013D000EA29EB29E7170130DC00D737D60CD50C0A
:1013E000D40CDC0BED290130DC005C08E6072100A1
:1013F00065086602031CFD29FE29DA29641B012AFF
:10140000022A3A2A6608031D062A072A102A0030F3
:10141000D7000030D6000030D5000030D400362B85
:101420005808D4075908D53D5A08D63D5B08D73D22
:10143000571C1B2A1C2AC62A671C1F2A202A262A58
:1014400067360138DC005C08E700282A0310E70C47
:10145000541C2B2A2C2A2D2AE7170130DC00D73701
:10146000D60CD50CD40CDC0B2F2A0130DC005C0828
:10147000E607C62A5708803ADC005B08803A5C021F
:10148000031D4C2A5A085602031D4C2A59085502BE
:10149000031D4C2A5808540203184F2A502A882A40
:1014A000FF30DC00FF30DD00FF30DE00FF30DF000A
:1014B00054085802E0005508593BE10056085A3BD1
:1014C000E20057085B3BE3006008DC076108DD3D94
:1014D0006208DE3D6308DF3D5F08D7005E08D60086
:1014E0005D08D5005C08D4008030DC005C08E406B0
:1014F000E709E70A6708031D7E2A7F2A902A013040
:10150000D4070030D53D0030D63D0030D73D902A7D
:101510005808D4025908D53B5A08D63B5B08D73B3C
:101520005708560455045404031D972A982AC22AC2
:101530006708031D9C2A9D2AC22A0030D70000306C
:10154000D6000030D5000030D400362B0130D43521
:10155000D50DD60DD70D890BA72AE71FB02AB12AC2
:10156000B22A5414671CB52AB62AB92A0314E70D07
:10157000BB2A0310E70D66080319BF2AC02AC22A36
:101580000130E602D61FC52AC62AA62AE501E71FB2
:10159000CA2ACB2AD92A67087F390319D02AD12A27
:1015A000D42AE501E50AD92A541CD72AD82AD92AEF
:1015B000D12A65080319DD2ADE2A0B2B0130D40756
:1015C0000030D53D0030D63D0030D73D571CE92ACC
:1015D000EA2A0B2B5408DC005508DD005608DE0013
:1015E0005708DF000130E000DF37DE0CDD0CDC0CDB
:1015F000E00BF42A5F08D7005E08D6005D08D5002E
:101600005C08D400660A0319062B072B0B2B01304C
:10161000DC005C08E607660A03190F2B102B152B5C
:101620006608031D142B152B232B0030D700003028
:10163000D6000030D5000030D4006608031D212BF1
:10164000222B232BE401661C262B272B292BD617B4
:101650002D2B7F30DC005C08D6056636DC005C088C
:10166000D700E41F342B352B362BD717080000305A
:101670002500E7000030E6000030E5000030E4001F
:10168000220047082500ED00220046082500EC0056
:10169000220045082500EB00220044082500EA004E
:1016A000E801E9012E2D06302000D3003030890BEF
:1016B000572BD30B572B0000220047082100A30013
:1016C000220046082100A200220045082100A100B6
:1016D000220044082100A0000030A7000030A6002E
:1016E0000030A5000030A400883100208B31031C9D
:1016F0007A2B7B2B092C22003B082100A30022001F
:101700003A082100A200220039082100A10022008D
:1017100038082100A0000030A7000030A6000030EB
:10172000A5000030A400883100208B310318992BCC
:101730009A2B092C25006D082100A30025006C08B8
:101740002100A20025006B082100A10025006A08E5
:101750002100A00022003B082100A70022003A0837
:101760002100A600220039082100A5002200380827
:101770002100A400883100208B310318C02BC12B1D
:10178000B42C25006D082100D70025006C0821002D
:10179000D60025006B082100D50025006A0821002D
:1017A000D4003D30A3004C30A200CC30A100CD309D
:1017B000A00022003B082100A70022003A082100D7
:1017C000A600220039082100A500220038082100C7
:1017D000A4008D317C258B3121002308DB002208F9
:1017E000DA002108D9002008D8008831FF208B3189
:1017F000210057082500ED00210056082500EC00C7
:10180000210055082500EB00210054082500EA00BE
:10181000B42C220047082100A30022004608210022
:10182000A200220045082100A10022004408210056
:10183000A0000030A7000030A6000030A500003056
:10184000A400883100208B310318272C282CB42CBD
:1018500022003B082100A30022003A082100A20038
:10186000220039082100A100220038082100A00030
:101870000030A7000030A6000030A5000030A40012
:10188000883100208B31031C462C472CB42C2500BA
:101890006D082100A30025006C082100A20025008E
:1018A0006B082100A10025006A082100A00000307B
:1018B000A7000030A6000030A5000030A400883149
:1018C00000208B310318652C662CB42C22004708AD
:1018D0002100A700220046082100A600220045089A
:1018E0002100A500220044082100A4003D30A300EF
:1018F0004C30A200CC30A100CD30A0008D317C2531
:101900008B31210023082200A3002100220822009D
:10191000A200210021082200A100210020082200AD
:10192000A00025006D082200A70025006C082200F9
:10193000A60025006B082200A50025006A082200E9
:10194000A40090313E208B31220023082500ED00B9
:10195000220022082500EC00220021082500EB00CF
:10196000220020082500EA0022003F082100A300F1
:1019700022003E082100A20022003D082100A10013
:1019800022003C082100A0000030A7000030A60083
:101990000030A5000030A400883100208B310318EE
:1019A000D22CD32C062D22003F082100BD0022009E
:1019B0003E082100BC0022003D082100BB0022009F
:1019C0003C082100BA0025006D082100C100250057
:1019D0006C082100C00025006B082100BF00250015
:1019E0006A082100BE00903174208B3121003D082F
:1019F0002500E70021003C082500E60021003B0807
:101A00002500E50021003A082500E40025006708CC
:101A10002200AB00250066082200AA002500650808
:101A20002200A900250064082200A80025006D08F6
:101A30002200AF0025006C082200AE0025006B08D4
:101A40002200AD0025006A082200AC009331E42397
:101A50008B3101302500E8070030E93D680820009F
:101A6000C300250069082000C400890D893B89094D
:101A7000C500C60001309A315D228B312000460836
:101A80002100BD00200045082100BC0020004408C2
:101A90002100BB00200043082100BA0022004308B7
:101AA0002100A700220042082100A60022004108D0
:101AB0002100A500220040082100A4003E30A30020
:101AC0004C30A200CC30A100CD30A0008D317C255F
:101AD0008B3121002308C1002208C0002108BF006B
:101AE0002008BE00993126218B31031C782D792DD9
:101AF000532B2200EA010800210023088039A800A6
:101B00002808AD002335A8002808B300A21F892D9E
:101B10008A2D8B2D3314330803198F2D902D9F2D73
:101B2000330A031D942D952D9D2D0030A300003008
:101B3000A2000030A1000030A000A217A72D0030A5
:101B4000A3000030A2000030A1000030A000270850
:101B50008039A8002808AD062735A8002808AE005F
:101B6000A61FB32DB42DB52D2E142E080319B92D93
:101B7000BA2DC92D2E0A031DBE2DBF2DC72D003035
:101B8000A7000030A6000030A5000030A400A61772
:101B9000D12D0030A7000030A6000030A500003095
:101BA000A4002E080319D52DD62DDB2D3308031DD7
:101BB000DA2DDB2DE42D0030A3000030A200003030
:101BC000A1000030A000FF2F2008A8002808200056
:101BD000AE0021002608A73138278D3120002F08BC
:101BE0002100B90020002E082100B8003808A80004
:101BF000A901AA01AB012B08B2002A08B1002908EB
:101C0000B0002808AF003908A800A901AA01AB015B
:101C10002B08B7002A08B6002908B5002808B40028
:101C20002108A80028082000AE0021002508A731BF
:101C300038278D3120002F082100B90020002E0800
:101C40002100B8003808A800A901AA01AB012808A2
:101C5000AF072908B03D2A08B13D2B08B23D39082D
:101C6000A800A901AA01AB012808B4072908B53DBD
:101C70002A08B63D2B08B73D2208A80028082000F6
:101C8000AE0021002408A73138278D3120002F080D
:101C90002100B90020002E082100B8003808A80053
:101CA000A901AA01AB012808AF072908B03D2A08FD
:101CB000B13D2B08B23D3908A800A901AA01AB012A
:101CC0002808B4072908B53D2A08B63D2B08B73DBA
:101CD0000830AF35B00DB10DB20D890B692E21085A
:101CE000A80028082000AE0021002408A7313827CA
:101CF0008D3120002F082100B90020002E0821007E
:101D0000B8003808AF073908B03D0030B13DB23DEA
:101D10002008A80028082000AE0021002508A731CF
:101D200038278D3120002F082100B90020002E080F
:101D30002100B8003808AF073908B03D0030B13D88
:101D4000B23D0830AF35B00DB10DB20D890BA22EEA
:101D50002008A80028082000AE0021002408A73190
:101D600038278D3120002F082100B90020002E08CF
:101D70002100B8003808AF073908B03D0030B13D48
:101D8000B23D2108A80028082000AE002100260846
:101D9000A73138278D3120002F082100B9002000FD
:101DA0002E082100B8003808B4073908B53D0030C6
:101DB000B63DB73D2208A80028082000AE0021004B
:101DC0002508A73138278D3120002F082100B900C0
:101DD00020002E082100B8003808B4073908B53DA6
:101DE0000030B63DB73D2208A80028082000AE000C
:101DF00021002608A73138278D3120002F08210027
:101E0000B90020002E082100B8003808A8003908C1
:101E1000A900AA01AB010830A835A90DAA0DAB0D88
:101E2000890B0C2F2808B4072908B53D2A08B63DB0
:101E30002B08B73D2F08A8003008A9003108AA00D8
:101E40003208AB001830AB36AA0CA90CA80C890BD1
:101E5000232F2808B4072908B53D2A08B63D2B08CA
:101E6000B73D0830AF35B00DB10DB20D890B322F33
:101E700033082E07A800A901A90D2808823EB80042
:101E8000FF30293DB9005B2F0130B435B50DB60DDB
:101E9000B70D890B452FB21F4E2F4F2F502F3414E3
:101EA0000130AF35B00DB10DB20D890B512FFF30A0
:101EB000B807FF30B93DB61F5E2F5F2F442FAE012C
:101EC000B21F632F642F802FFF302F05A800FF3033
:101ED0003005A900FF303105AA007F303205AB0084
:101EE0002B082A04290428040319772F782F7B2F25
:101EF000AE01AE0A802F341C7E2F7F2F802F782FCB
:101F00002E080319842F852FAD2F0130B407003020
:101F1000B53D0030B63D0030B73D371C902F912FB6
:101F2000AD2F3408A8003508A9003608AA003708E4
:101F3000AB000130AC00AB37AA0CA90CA80CAC0B61
:101F40009B2F2B08B7002A08B6002908B5002808DF
:101F5000B4000130B8070030B93D3908803AA80014
:101F600080302802031DB62FFF303802031CB92F22
:101F7000BA2FC42F7F302100B7008030B600003068
:101F8000B5000030B400F32F21003908803AA800D2
:101F900080302802031DCE2F013038020318D12FC4
:101FA000D22FDD2F00302100B7000030B600003006
:101FB000B5000030B400AD01F32F21003808A800AF
:101FC0002808B300FF30B405FF30B5057F30B605F3
:101FD0000030B705331CED2FEE2FEF2FB617333639
:101FE000A8002808B7002D08A8002808B70437085B
:101FF000A3003608A2003508A1003408A00008009C
:102000002000310830042F042E0403190828092861
:102010000B288030B1060800220090018F018C014E
:1020200027008C0122008D0127008D0122008E01E6
:10203000FF302100900026008C01FF3021008C0031
:102040003D3026008D00F03021008D00BB308E0029
:10205000FF308F00073023009000183028008D00DB
:10206000FF308C002F3023008C0024008D012900CC
:102070008D012100951722009D010800803022006B
:10208000A30627082100D700220026082100D60039
:10209000220025082100D500220024082100D400B8
:1020A000220023082100DB00220022082100DA00A0
:1020B000220021082100D900220020082100D80098
:1020C0008831FF209031210057082200A300210011
:1020D00056082200A200210055082200A10021007C
:1020E00054082200A0000800210041088039C200E5
:1020F0004208CB004135C2004208D200C01F8128EF
:10210000822883285214520803198728882898287F
:10211000520A031D8C288D2895280030C1000030FC
:10212000C0000030BF000030BE00C017C101A028B1
:102130000030C1000030C0000030BF000030BE00E1
:102140003D088039C2004208CB063D35C200420836
:10215000D300BC1FAC28AD28AE2853145308031974
:10216000B228B328C328530A031DB728B828C028AB
:102170000030BD000030BC000030BB000030BA00B1
:10218000BC17BD01CB280030BD000030BC000030C2
:10219000BB000030BA003D083C043B043A04031D78
:1021A000D228D328EC280030C1000030C000003015
:1021B000BF000030BE008030C0047F30C1044B0837
:1021C000C2004208C1044108BD004008BC003F08ED
:1021D000BB003E08BA00272A5208031DF028F12848
:1021E000FA280030BD000030BC000030BB000030D9
:1021F000BA00272A5208C200C3014308C500530889
:102200004202C400031CC50344087F3ECC000030DA
:10221000453DCD004108CA004008C9003F08C8003C
:102220003E08C7000030C1000030C0000030BF00D1
:102230000030BE000030D1000030D0000030CF00B0
:102240000030CE00D3016229530803192829292917
:1022500043290130C735C80DC90DCA0D890B2A297C
:102260000130BE35BF0DC00DC10D890B3129D11F05
:102270003A293B293C293E140130CE35CF0DD00DF3
:10228000D10D890B3D293D084A02031D51293C0807
:102290004902031D51293B084802031D51293A08F0
:1022A0004702031C542955295E2951173A08C702D1
:1022B0003B08C83B3C08C93B3D08CA3B0130C20053
:1022C0004208D3071A305302031C672968292429BE
:1022D0004A0849044804470403196F2970298929C9
:1022E0004E1489290130BE35BF0DC00DC10D890BBB
:1022F0007329D11F7C297D297E293E140130CE35DA
:10230000CF0DD00DD10D890B7F29FF30CC07FF30C9
:10231000CD3DC01F8C298D297229D301D11F912950
:102320009229AE29FF304E05C200FF304F05C30091
:10233000FF305005C4007F305105C50045084404F6
:10234000430442040319A529A629A929D301D30AC4
:10235000AE293E1CAC29AD29AE29A6295308031984
:10236000B229B329DB290130BE070030BF3D003060
:10237000C03D0030C13D411CBE29BF29DB293E08BC
:10238000C2003F08C3004008C4004108C500013036
:10239000C600C537C40CC30CC20CC60BC9294508FE
:1023A000C1004408C0004308BF004208BE0001301D
:1023B000CC070030CD3D4D08803AC200803042024B
:1023C000031DE429FF304C02031CE729E829F52905
:1023D000FF302100CC000030CD000030C1000030C3
:1023E000C0000030BF000030BE0021004D08803A20
:1023F000C20080304202031DFF2901304C02031845
:10240000022A032A0F2A2100CC01CD010030C1008D
:102410000030C0000030BF000030BE00CB01210002
:102420004C08C2004208D200521C172A182A1A2A45
:10243000C0171E2A7F30C2004208C0055236C200B3
:102440004208C1004B08C2004208C104E32808004A
:1024500041302500280603192E2A2F2A352A20006C
:102460005703031D342A352AE32B2000D701D70A4E
:102470002100BC01BD01CD2B413025002806031DE4
:10248000422A432A492A30302000D1005108250031
:10249000A80021003C08A83E860002308700763064
:1024A00001060319542A552A762A3C08A83E8600BC
:1024B000023087007230010603195F2A602A762AEB
:1024C0003C08A83E860002308700613001060319EF
:1024D0006A2A6B2A762A3C08A83E860002308700CA
:1024E00023300106031D752A762AB52B3C08A83E29
:1024F00086000230870076300106031D802A812A7B
:10250000D32AA0302000B4000030B5009B310A234C
:10251000923120003408C3003508C400890D893B7E
:102520008909C500C60001309A315D229231200030
:1025300046082200CB00200045082200CA002000E7
:1025400044082200C900200043082200C8002100DE
:10255000B401B501BB2A20302000D100210034088D
:10256000A03E860087012000510881000130210033
:10257000B4070030B53DA0302000AE000030AF0001
:10258000A631C026923120002F0821003502031DFC
:10259000CD2A20002E0821003402031CD02AD12A83
:1025A000AB2A2000D60121003C08A83E860002305C
:1025B000870072300106031DDE2ADF2A312BA0308E
:1025C0002000B4000030B5009B310A239231200076
:1025D0003408C3003508C400890D893B8909C5004A
:1025E000C60001309A315D22923120004608230056
:1025F000ED00200045082300EC00200044082300E3
:10260000EB00200043082300EA002100B601B701D7
:10261000192B20302000D10021003608A03E860072
:10262000870120005108810001302100B6070030E9
:10263000B73DA0302000AE000030AF00A631C0266C
:10264000923120002F0821003702031D2B2B200080
:102650002E0821003602031C2E2B2F2B092B2000C5
:10266000D60121003C08A83E860002308700613078
:102670000106031D3C2B3D2B792BA0302000B4001C
:102680000030B5009B310A23923120003508230029
:10269000DD00200034082300DC002100B801B9016E
:1026A000612B20302000D10021003808A03E860098
:1026B000870120005108810001302100B807003057
:1026C000B93DA0302000AE000030AF00A631C026DA
:1026D000923120002F0821003902031D732B2000A6
:1026E0002E0821003802031C762B772B512B20005B
:1026F000D60121003C08A83E860002308700233026
:102700000106031D842B852BC82B02302000D1002D
:102710005108D7002100BA01BB019E2B20302000B8
:10272000D10021003A08A03E860087012000510810
:10273000810001302100BA070030BB3DA0302000ED
:10274000AE000030AF00A631C026923120002F0825
:1027500021003B02031DB02B20002E0821003A026D
:10276000031CB32BB42B8E2BC82B3C08A83E860031
:102770000230870001082000D1005608A03E8600E4
:102780008701510881005608013ED1005108D6004A
:1027900001302100BC070030BD3DA8302000AE0054
:1027A0000230AF00A631C026923120002F08210050
:1027B0003D02031DDF2B20002E0821003C02031CDC
:1027C000E22BE32B3C2A080000302200B700003047
:1027D000B6000030B5000030B40040302100A30046
:1027E0000B30A2000030A1000030A00022002B0816
:1027F0002100A70022002A082100A60022002908A3
:102800002100A500220028082100A4008D317C258C
:10281000933121002308D7002208D6002108D500D3
:102820002008D4004230BD000030BC000030BB00A6
:102830000030BA0022002F082100C10022002E081B
:102840002100C00022002D082100BF0022002C081A
:102850002100BE0090317420933121003D08DB003F
:102860003C08DA003B08D9003A08D8008831FF203C
:102870009331210057082200B3002100560822009E
:10288000B200210055082200B100210054082200A6
:10289000B00040302100A3000B30A2000030A100A6
:1028A0000030A00022002B082100A70022002A08E7
:1028B0002100A600220029082100A50022002808E6
:1028C0002100A4008D317C259331210023082200B2
:1028D000A300210022082200A200210021082200DA
:1028E000A100210020082200A00042302100BD00EC
:1028F0000030BC000030BB000030BA0022002F08BE
:102900002100C10022002E082100C00022002D0855
:102910002100BF0022002C082100BE00903174204D
:10292000933121003D082200A70021003C0822002D
:10293000A60021003B082200A50021003A08220041
:10294000A40090313E20933122002308B7002208D2
:10295000B6002108B5002008B40033082100BD00EE
:10296000220032082100BC00220031082100BB00F7
:10297000220030082100BA000030C1000030C00041
:102980000030BF000030BE0099312621933103187A
:10299000CA2CCB2CF12C220033082000B1002200DD
:1029A00032082000B000220031082000AF002200D1
:1029B00030082000AE009031002093312000310813
:1029C0002200B300200030082200B20020002F08AF
:1029D0002200B10020002E082200B00027008C1336
:1029E000F32C27008C17220037082100BD0022009D
:1029F00036082100BC00220035082100BB0022005F
:102A000034082100BA000030C1000030C00000309E
:102A1000BF000030BE009931262193310318112DDB
:102A2000122D382D220037082000B1002200360870
:102A30002000B000220035082000AF00220034083A
:102A40002000AE0090310020933120003108220098
:102A5000B700200030082200B60020002F08220016
:102A6000B50020002E082200B40027008C153A2D56
:102A700027008C11220033082100A3002200320815
:102A80002100A200220031082100A100220030080C
:102A90002100A0000030A7000030A6000030A500F3
:102AA0000030A400883100209331031C582D592D8B
:102AB0005F2DE8302200E8000330E900952D413019
:102AC0002100C100FB30C0005330BF00F830BE0011
:102AD000220033082100BD00220032082100BC0082
:102AE000220031082100BB00220030082100BA007A
:102AF00090317420933121003D08EB003C08EA003E
:102B00003B08E9003A08E80098311220933121008F
:102B10006908ED006808EC00ED36EC0C6C0822004A
:102B2000E80021006D082200E90037082100A30019
:102B3000220036082100A200220035082100A10051
:102B4000220034082100A0000030A7000030A600B9
:102B50000030A5000030A400883100209331031C10
:102B6000B22DB32DB92DE8302200E6000330E70086
:102B7000EF2D42302100C1000530C000A930BF0058
:102B8000FC30BE00220037082100BD0022003608BC
:102B90002100BC00220035082100BB0022003408BF
:102BA0002100BA0090317420933121003D08EB00E0
:102BB0003C08EA003B08E9003A08E8009831122096
:102BC000933121006908ED006808EC00ED36EC0C4B
:102BD0006C082200E60021006D082200E7000800D2
:102BE000023021006F06031DF62DF72D292F20003E
:102BF000DF1FFB2DFC2D0B2EDE09DF09DE0A03197A
:102C0000DF0AC0302300BB004030BA000030B900FA
:102C10000030B800142E40302300BB004030BA0012
:102C20000030B9000030B80043302100A300DA3092
:102C3000A2005730A1002B30A00020005E08C30086
:102C40005F08C400890D893B8909C500C6000130B1
:102C50009A315D229531200046082100A70020000E
:102C600045082100A600200044082100A5002000FE
:102C700043082100A4008D317C25953121002308D3
:102C80002200BB00210022082200BA0021002108F6
:102C90002200B900210020082200B80045302100A0
:102CA000BD006A30BC009030BB000030BA0042303A
:102CB000A300C830A2000030A1000030A000220014
:102CC0003B082100A70022003A082100A6002200AC
:102CD00039082100A500220038082100A4008D3108
:102CE0007C25953121002308C1002208C00021085D
:102CF000BF002008BE0090317420953121003D08AE
:102D00002200CF0021003C082200CE0021003B0819
:102D10002200CD0021003A082200CC00DA01DB01BC
:102D200020005408C3005508C400C501C601003086
:102D30009A315D229531200046082100A300200031
:102D400045082100A200200044082100A100200025
:102D500043082100A00022004F082100A700220004
:102D60004E082100A60022004D082100A5002200E7
:102D70004C082100A4008831002095310318C12E91
:102D8000C22EF12E22004F082100DB0022004E0847
:102D90002100DA0022004D082100D90022004C0851
:102DA0002100D800C330D7000730D6000030D5004E
:102DB0000030D4008831FF20953121005708EB0006
:102DC0005608EA005508E9005408E8009831122036
:102DD0009531210069082000D500210068082000F5
:102DE000D40023003B082200AB0023003A08220055
:102DF000AA00230039082200A90023003808220075
:102E0000A8000030AF000030AE000030AD00003050
:102E1000AC009331E42395312000550822005B0279
:102E2000031D162F2000540822005A02031C192FDC
:102E30001A2F0C2F03302000D30053082100EF007D
:102E400000302200CF000030CE000030CD00003036
:102E5000CC00033021006F06031D2F2F302FFF2FD2
:102E60004430A3007A30A2000030A1000030A0005E
:102E700023003F082100BD0023003E082100BC00C4
:102E800023003D082100BB0023003C082100BA00BC
:102E900023005E082000C30023005F082000C40058
:102EA000C501C60100309A315D22953120004608E7
:102EB0002100C100200045082100C0002000440876
:102EC0002100BF00200043082100BE009031742083
:102ED000953121003D08A7003C08A6003B08A5004D
:102EE0003A08A4008D317C25953121002308220069
:102EF000CF00210022082200CE002100210822005C
:102F0000CD00210020082200CC0020005408C3007E
:102F10005508C400C501C60100309A315D229531C3
:102F2000200046082100A300200045082100A2003F
:102F3000200044082100A100200043082100A00037
:102F400022004F082100A70022004E082100A60001
:102F500022004D082100A50022004C082100A400F9
:102F60008831002095310318B62FB72FD22F2200B9
:102F70004F082100EB0022004E082100EA00220049
:102F80004D082100E90022004C082100E80098319A
:102F900012209531210069082000D5002100680821
:102FA0002000D4002200DA01DB0100302300BB0046
:102FB0000030BA000030B9000030B8003F082200ED
:102FC000C70023003E082200C60023003D0822005F
:102FD000C50023003C082200C40023003B08240055
:102FE000E50023003A082400E40023003908240007
:102FF000E300230038082400E2002100EF0108006C
:1030000008002000181D052806280D281810710832
:10301000970070089600181411287108970070081E
:1030200096000800031021006A0D6B0D2200A0001D
:1030300020082000D2005208031D1F2820282A281B
:1030400000302100EB000030EA000030E9000030E1
:10305000E8009A28210068082200A00021006908E1
:103060002200A10021006A082200A20021006B08B2
:103070002200A3001F30A336A20CA10CA00C890BC8
:103080003B282008A40024082000D1002100EA17D2
:10309000FF30E805FF30E905FF30EA050030EB05B9
:1030A00096302000D202D21F562857287228520884
:1030B000803A973E03185D285E285F28202801305B
:1030C0002100EB36EA0CE90CE80C890B6028013092
:1030D0002200A00020082000D207031D70287128BC
:1030E0005F28892820305202031C772878288428FA
:1030F000202801302100E835E90DEA0DEB0D890BA0
:103100007A2801302000D2025208031D882889281D
:103110007928510803198D288E289A282100E8095A
:10312000E909EA09EB09E80A0319E90A0319EA0AB5
:103130000319EB0A0800003020002005A800003029
:103140002105A90080302205AA007F302305AB00AD
:103150002B082A0429042804031DAF28B028B82806
:103160000030A3000030A2000030A1000030A00019
:1031700000302405A80000302505A9008030260570
:10318000AA007F302705AB002B082A042904280455
:10319000031DCB28CC28D4280030A7000030A6007F
:1031A0000030A5000030A400A31FD728D828F0289D
:1031B0000030A8000030A9000030AA008030AB0029
:1031C0002008A8022108A93B2208AA3B2308AB3B00
:1031D0002B08A3002A08A2002908A1002808A000A3
:1031E000A71FF328F4280C290030A8000030A900FC
:1031F0000030AA008030AB002408A8022508A93BB3
:103200002608AA3B2708AB3B2B08A7002A08A600E4
:103210002908A5002808A4008030A3068030A7064E
:1032200027082302031D1E2926082202031D1E292A
:1032300025082102031D1E29240820020318212924
:103240002229242903102529031408000030210015
:103250003A05C20000303B05C30080303C05C40085
:103260007F303D05C5004508440443044204031D66
:103270003A293B2943290030BD000030BC00003012
:10328000BB000030BA0000303E05C20000303F05F0
:10329000C30080304005C4007F304105C5004508AB
:1032A000440443044204031D562957295F29003072
:1032B000C1000030C0000030BF000030BE00BD1FA4
:1032C000622963297B290030C2000030C30000302E
:1032D000C4008030C5003A08C2023B08C33B3C082A
:1032E000C43B3D08C53B4508BD004408BC0043083D
:1032F000BB004208BA00C11F7E297F2997290030F0
:10330000C2000030C3000030C4008030C5003E0859
:10331000C2023F08C33B4008C43B4108C53B4508C7
:10332000C1004408C0004308BF004208BE0080300E
:10333000BD068030C10641083D02031DA929400891
:103340003C02031DA9293F083B02031DA9293E0891
:103350003A020318AC29AD29AF290310B029031490
:103360000800F80078080319B629B729CB29F31FFC
:10337000BA29BB29CB297009FA007109FB0072092F
:10338000FC007309FD00FA0A0319FB0A0319FC0A81
:103390000319FD0AD3297308FD007208FC007108A7
:1033A000FB007008FA007308720471047004031DB6
:1033B000DA29DB29E4290030F3000030F200003084
:1033C000F1000030F0005C2A9630F4007408F90037
:1033D000F4290130F4007408F9070130FD36FC0CC3
:1033E000FB0CFA0C890BEE29FE307D05031DF92933
:1033F000FA29E9290E2A0130F4007408F90701308E
:10340000FA070030FB3D0030FC3D0030FD3D01304F
:10341000FD36FC0CFB0CFA0C890B082AFF307D05ED
:10342000031D132A142AFB291E2A0130F902013038
:10343000FA35FB0DFC0DFD0D890B182AFC1B212A0A
:10344000222A282A023079020318272A282A152A34
:1034500079182B2A2C2A342AFF30FA05FF30FB0575
:103460007F30FC05FF30FD050310F90C7908F400EE
:10347000F501F601F7011830F435F50DF60DF70DED
:10348000890B3C2A7408FA047508FB047608FC04CE
:103490007708FD04780803194E2A4F2A542AF31F8F
:1034A000522A532A542AFD177D08F3007C08F200A3
:1034B0007B08F1007A08F00008002000CB004B08E0
:1034C0000319632A642A782AC61F672A682A782A79
:1034D0004309CD004409CE004509CF004609D0007C
:1034E000CD0A0319CE0A0319CF0A0319D00A802A7C
:1034F0004608D0004508CF004408CE004308CD0060
:103500004608450444044304031D872A882A912A57
:103510000030C6000030C5000030C4000030C300D9
:10352000092B9630C7004708CC00A12A0130C700FC
:103530004708CC070130D036CF0CCE0CCD0C890B10
:103540009B2AFE305005031DA62AA72A962ABB2ACD
:103550000130C7004708CC070130CD070030CE3D11
:103560000030CF3D0030D03D0130D036CF0CCE0CF6
:10357000CD0C890BB52AFF305005031DC02AC12A86
:10358000A82ACB2A0130CC020130CD35CE0DCF0D8B
:10359000D00D890BC52ACF1BCE2ACF2AD52A0230BF
:1035A0004C020318D42AD52AC22A4C18D82AD92A60
:1035B000E12AFF30CD05FF30CE057F30CF05FF304B
:1035C000D0050310CC0C4C08C700C801C901CA01C2
:1035D0001830C735C80DC90DCA0D890BE92A47082F
:1035E000CD044808CE044908CF044A08D0044B084B
:1035F0000319FB2AFC2A012BC61FFF2A002B012BD3
:10360000D0175008C6004F08C5004E08C4004D082A
:10361000C30008002000C101C201BA01BB01142B84
:103620000130B4070030B53DC001C00A340886003F
:10363000350887002030010603191F2B202B352B5E
:1036400034088600350887000108F73EB600FF30D1
:1036500003180030B7000030370205300319360276
:10366000031C332B342B352BC0014008B600B701A7
:103670003608BC003708BD003C083D04031D412B43
:10368000422B102B4C2B0130BA000030BB00013014
:10369000B4070030B53D7E2B34088600350887001E
:1036A0000108B600B7013708003A0319582B7E2BE2
:1036B00036082B3A0319472B063A0319432B7E2B66
:1036C00034088600350887004208AF004108AE0084
:1036D0000A30B0000030B100A631F6269B31200040
:1036E0002F08B70001082E02B600031CB7033608E6
:1036F000303EC1000030373DC200472B3408860001
:10370000350887000108D03EB600FF3003180030AE
:10371000B700003037020A3003193602031C912B20
:10372000932B0130942B0030B800B9013808BE004B
:103730003908BF003E083F04031D9F2BA02B602BC0
:103740003A083B04031DA52BA62BB22B4109B6005A
:103750004209B700B60A0319B70A3608B400370899
:10376000B500B62B4208B5004108B40008004D3042
:10377000250028060319BD2BBE2BC42B22005F0396
:10378000031DC32BC42BB82C2200DF01DF0A21004C
:10379000B801B901A22C4D3025002806031DD12BFC
:1037A000D22BD82B30302000D10051082500A800A2
:1037B00021003808A83E86000230870076300106D6
:1037C0000319E32BE42BEF2B3808A83E86000230C8
:1037D000870023300106031DEE2BEF2B862C3808C3
:1037E000A83E86000230870076300106031DF92BC3
:1037F000FA2B4D2CA0302000B4000030B5009B31D6
:103800000A239B3120003408C3003508C400890D09
:10381000893B8909C500C60001309A315D229B3180
:10382000200046082200D300200045082200D200D4
:10383000200044082200D100200043082200D000CC
:103840002100B401B501342C20302000D10021002A
:103850003408A03E86008701200051088100013015
:103860002100B4070030B53DA0302000AE0000308C
:10387000AF00A631C0269B3120002F082100350261
:10388000031D462C20002E0821003402031C492C65
:103890004A2C242C2200D801D90121003808A83E46
:1038A00086000230870023300106031D582C592C56
:1038B0009D2C2200DF012100B601B7016F2C2030C2
:1038C0002000D10021003608A03E8600870120009C
:1038D0005108810001302100B6070030B73DA0300B
:1038E0002000AE000030AF00A631C0269B31200082
:1038F0002F0821003702031D812C20002E082100F3
:103900003602031C842C852C5F2C9D2C3808A83E85
:1039100086000230870001082000D10022005808EC
:10392000A03E86008701200051088100220058082F
:10393000013ED8000030593DD90001302100B807C0
:103940000030B93DA8302000AE000230AF00A631F3
:10395000C0269B3120002F0821003902031DB42C02
:1039600020002E0821003802031CB72CB82CCB2BCA
:103970000800023020005706031DBF2CC02C512E1A
:1039800040302100A3004930A2000F30A100D03008
:10399000A00023006D082100A70023006C0821006F
:1039A000A60023006B082100A50023006A0821005F
:1039B000A4008D317C259C31210023082600A30022
:1039C000210022082600A200210021082600A100D3
:1039D000210020082600A00023005C082000C3006E
:1039E00023005D082000C400C501C60100309A31E3
:1039F0005D229C31200046082100A30020004508DC
:103A00002100A200200044082100A100200043085A
:103A10002100A000260023082100A700260022087C
:103A20002100A600260021082100A500260020086C
:103A30002100A4008D317C259C3121002308260023
:103A4000A700210022082600A60021002108260048
:103A5000A500210020082600A40041302100A30079
:103A60009030A2000030A1000030A00022004B08DE
:103A70002100A70022004A082100A60022004908D0
:103A80002100A500220048082100A4008D317C25DA
:103A90009C3121002308BD002208BC002108BB0086
:103AA0002008BA004230A300C830A2000030A100B4
:103AB0000030A000260027082100A70026002608C5
:103AC0002100A600260025082100A50026002408C4
:103AD0002100A4008D317C259C3121002308C100E8
:103AE0002208C0002108BF002008BE0090317420C9
:103AF0009C3121003D082300B30021003C08230035
:103B0000B20021003B082300B10021003A08230045
:103B1000B0006D082100BD0023006C082100BC002E
:103B200023006B082100BB0023006A082100BA00B3
:103B300022004B082100C10022004A082100C000D9
:103B4000220049082100BF00220048082100BE00D1
:103B5000903174209C3121003D082300B7002100E2
:103B60003C082300B60021003B082300B5002100DB
:103B70003A082300B40020005408C3005508C400CC
:103B8000C501C60100309A315D229C3120004608F3
:103B90002100A300200045082100A20020004408C5
:103BA0002100A100200043082100A00023003308C9
:103BB0002100A700230032082100A60023003108BD
:103BC0002100A500230030082100A4008831002036
:103BD0009C310318EC2DED2D082E23003308210015
:103BE000EB00230032082100EA0023003108210005
:103BF000E900230030082100E800983112209C31B0
:103C0000210069082000D500210068082000D400A8
:103C10002200DA01DB014B08BB004A08BA00490860
:103C2000B9004808B80023006D082200BF00230037
:103C30006C082200BE0023006B082200BD00230098
:103C40006A082200BC00230033082200C3002300BE
:103C500032082200C200230031082200C1002300E4
:103C600030082200C0008B3137239C3122004B08E2
:103C7000C7004A08C6004908C5004808C400230018
:103C800037082400E500230036082400E400230060
:103C900035082400E300230034082400E20020005B
:103CA000D70108005330250028060319582E592E35
:103CB0005F2E21006F03031D5E2E5F2EFF2F21005C
:103CC000EF01EF0ABC01BD01E92F533025002806A2
:103CD000031D6B2E6C2E722E30302000D100510847
:103CE0002500A80021003C08A83E8600023087007D
:103CF0007630010603197D2E7E2E9F2E3C08A83EAD
:103D00008600023087006C3001060319882E892E48
:103D10009F2E3C08A83E86000230870064300106D2
:103D20000319932E942E9F2E3C08A83E8600023045
:103D3000870023300106031D9E2E9F2ED12F3C08A5
:103D4000A83E86000230870076300106031DA92EAA
:103D5000AA2EFC2EA0302000B4000030B5009B310C
:103D60000A239E3120003408C3003508C400890DA1
:103D7000893B8909C500C60001309A315D229E3118
:103D8000200046082300BF00200045082300BE0095
:103D9000200044082300BD00200043082300BC008D
:103DA0002100B401B501E42E20302000D100210013
:103DB0003408A03E860087012000510881000130B0
:103DC0002100B4070030B53DA0302000AE00003027
:103DD000AF00A631C0269E3120002F0821003502F9
:103DE000031DF62E20002E0821003402031CF92E9C
:103DF000FA2ED42E2000D80121003C08A83E8600CF
:103E0000023087006C300106031D072F082F442F56
:103E1000A0302000B4000030B5009B310A239E3151
:103E2000200035082300DF00200034082300DE00D6
:103E30002100B601B7012C2F20302000D100210035
:103E40003608A03E8600870120005108810001301D
:103E50002100B6070030B73DA0302000AE00003092
:103E6000AF00A631C0269E3120002F082100370266
:103E7000031D3E2F20002E0821003602031C412F77
:103E8000422F1C2F2000D80121003C08A83E8600AC
:103E90000230870064300106031D4F2F502F892FF9
:103EA000A0302000B4000030B5009B310A239E31C1
:103EB00020003508DF003408DE002100B801B90118
:103EC000712F20302000D10021003808A03E86004C
:103ED000870120005108810001302100B80700301F
:103EE000B93DA0302000AE000030AF00A631C026A2
:103EF0009E3120002F0821003902031D832F20004E
:103F00002E0821003802031C862F872F612F2000E6
:103F1000D80121003C08A83E8600023087002330EB
:103F20000106031D942F952FE42F20005E085F04E7
:103F300003199B2F9C2FA22F0230D1005108210082
:103F4000EF00A72F0330D10051082100EF00BA0184
:103F5000BB01BA2F20302000D10021003A08A03E3A
:103F60008600870120005108810001302100BA0736
:103F70000030BB3DA0302000AE000030AF00A631C5
:103F8000C0269E3120002F0821003B02031DCC2FAC
:103F900020002E0821003A02031CCF2FD02FAA2F79
:103FA000E42F3C08A83E860002308700010820006C
:103FB000D1005808A03E86008701510881005808AA
:103FC000013ED1005108D80001302100BC0700306B
:103FD000BD3DA8302000AE000230AF00A631C026A3
:103FE0009E3120002F0821003D02031DFB2F2000E1
:103FF0002E0821003C02031CFE2FFF2F652E080017
:104BB000163021009700080000340034F0344134EE
:104BC0002000110E890C01390800E8340334E83460
:104BD00003340134640080010131890BEB2D003472
:104BE000FE0012001E00FE0BF12D00347A30210071
:104BF0009900980122009601080020002F08250046
:104C0000E10020002E082500E000080020002F0809
:104C10002400EF0020002E082400EE0008002000F1
:104C20002F082500E30020002E082500E2000800E0
:104C300020002F082500DB0020002E082500DA00C8
:104C4000080020002F082500DF0020002E08250086
:104C5000DE00080020002F082500DD0020002E08BF
:104C60002500DC00080020002F082300EF002000B2
:104C70002E082300EE00080027000C148C100C16E0
:104C80008C1222008D110D1508002000AE00141E9C
:104C90004A2E4B2E472E2E08290092000800803005
:104CA0002400940008309500960127309200951258
:104CB0000800803024009C0008309D009E012730B1
:104CC0009A009D12080023006E086F040319692ED4
:104CD0006A2E6F2E6F088A006E080A00A63108003F
:104CE0002000111022006C08F1006B08F0009831D0
:104CF0000120A631A6316326A63108002000911EAE
:104D0000822E832E7E2E2200E30123009D1C892EFD
:104D10008A2E8C2E1D121D161908080020002E0840
:104D2000D03EB000FF302F3DB100003031020A30DC
:104D300003193002031C9D2E9F2E0130A02E00303F
:104D4000B200B3013208AE003308AF000800A6314C
:104D50004F26A631A6315926A63190310C20A63116
:104D6000A531F625A631A531D825A631A631DA26FA
:104D7000A631A7315C27A6318731D027A63108009C
:104D800020002F08B1002E08B000CA2E0130AE0757
:104D90000030AF3D2E0886002F0887000108031D54
:104DA000D22ED32EC62E30082E02AE0031082F3B55
:104DB000AF00080020009901C130970080309600B4
:104DC000111017082200EC00200016082200EB004A
:104DD0002100111400302000AE001830AF00A631C1
:104DE0003326A63141302000980008002000B2018F
:104DF000B3012E1CFC2EFD2E012F3008B207310806
:104E0000B33D0130B035B10D890B022F0130AF3603
:104E1000AE0C890B072F2E082F04031D102F112F06
:104E2000F92E3308AF003208AE0008002000B201AE
:104E3000B20A20302E062F0403191F2F202F302FE7
:104E40002E08F73EB000FF302F3DB1000030310298
:104E5000053003193002031C2E2F2F2F302FB201E3
:104E60003208B000B1013008AE003108AF000800D0
:104E70002000B600B201B3012E08B000B101300825
:104E8000B4003108B500361C462F472F4B2F34088D
:104E9000B2073508B33D0130B435B50D890B4C2F41
:104EA0000310B60C3608031D562F572F432F330817
:104EB000AF003208AE000800083023009F00903099
:104EC0009D0024309E00A0309B0001309C000030EB
:104ED0002000AE000030AF00A6310626A73100301A
:104EE0002000AE000030AF00A6310F26A731003001
:104EF0002000AE000030AF00A531FD25A731220013
:104F0000E3010800A631A726A73199302000AE00A2
:104F10000630AF00A6313326A7318B170B172200BE
:104F20000E15A6313C26A731A531E025A731003A60
:104F300003199B2F9C2FBC2FA6317E26A731210061
:104F4000EE0022005C08A83E8600023087002100A7
:104F50006E08810022005C08A83E860002308700AF
:104F60000108A6314526A73122005C08013E210038
:104F7000EE006E082200DC0022005C08A73E8600DE
:104F80000230870023300106031DC72FC82FD62FFC
:104F90009B31B723A73192312822A7319E31522667
:104FA000A73180316920A7312200DC018331F7234A
:104FB000A7319C31B924A7319531F025A73188312B
:104FC0004F20A731240065082200AB0024006408AC
:104FD0002200AA00240063082200A900240062081D
:104FE0002200A8004708AF004608AE004508AD0003
:104FF0004408AC009331E423A731942F8031192861
:105000000034003400340034003400340034003400
:1050100000340034003400340034003400340034F0
:1050200000340034003400340034003400340034E0
:1050300000340034003400340034003400340034D0
:1050400000340034003400340034003400340034C0
:1050500000340034003400340034003400340034B0
:1050600000340034003400340034003400340034A0
:105070000034003400340034003400340034003490
:0A5080002534663420340A3400346D
:020000040001F9
:04000E00E409FF3CC6
:00000001FF
